{"contracts/Maketplace.sol":{"Maketplace":{"abi":[{"anonymous":false,"inputs":[{"indexed":false,"internalType":"uint256","name":"listingId","type":"uint256"}],"name":"CancelledListing","type":"event"},{"anonymous":false,"inputs":[{"indexed":false,"internalType":"uint8","name":"version","type":"uint8"}],"name":"Initialized","type":"event"},{"anonymous":false,"inputs":[{"indexed":false,"internalType":"address","name":"buyer","type":"address"},{"indexed":false,"internalType":"uint256","name":"listingId","type":"uint256"}],"name":"NFTSold","type":"event"},{"anonymous":false,"inputs":[{"indexed":false,"internalType":"address","name":"seller","type":"address"},{"indexed":false,"internalType":"address","name":"paymentToken","type":"address"},{"indexed":false,"internalType":"uint256","name":"tokenId","type":"uint256"},{"indexed":false,"internalType":"uint256","name":"amount","type":"uint256"},{"indexed":false,"internalType":"uint256","name":"price","type":"uint256"}],"name":"NewListing","type":"event"},{"anonymous":false,"inputs":[{"indexed":true,"internalType":"address","name":"previousOwner","type":"address"},{"indexed":true,"internalType":"address","name":"newOwner","type":"address"}],"name":"OwnershipTransferred","type":"event"},{"anonymous":false,"inputs":[{"indexed":false,"internalType":"address","name":"account","type":"address"}],"name":"Paused","type":"event"},{"anonymous":false,"inputs":[{"indexed":false,"internalType":"address","name":"account","type":"address"}],"name":"Unpaused","type":"event"},{"inputs":[],"name":"ERC1155_INTERFACE_ID","outputs":[{"internalType":"bytes4","name":"","type":"bytes4"}],"stateMutability":"view","type":"function"},{"inputs":[],"name":"ERC721_INTERFACE_ID","outputs":[{"internalType":"bytes4","name":"","type":"bytes4"}],"stateMutability":"view","type":"function"},{"inputs":[],"name":"feeRecipient","outputs":[{"internalType":"address payable","name":"","type":"address"}],"stateMutability":"view","type":"function"},{"inputs":[],"name":"initialize","outputs":[],"stateMutability":"nonpayable","type":"function"},{"inputs":[{"internalType":"address","name":"_addrNft","type":"address"},{"internalType":"address","name":"_paymentToken","type":"address"},{"internalType":"uint256","name":"_tokenId","type":"uint256"},{"internalType":"uint256","name":"_amount","type":"uint256"},{"internalType":"uint256","name":"_price","type":"uint256"}],"name":"listing","outputs":[],"stateMutability":"payable","type":"function"},{"inputs":[],"name":"listingFee","outputs":[{"internalType":"uint256","name":"","type":"uint256"}],"stateMutability":"view","type":"function"},{"inputs":[{"internalType":"uint256","name":"","type":"uint256"}],"name":"listings","outputs":[{"internalType":"address","name":"seller","type":"address"},{"internalType":"address","name":"paymentToken","type":"address"},{"internalType":"address","name":"nft","type":"address"},{"internalType":"uint256","name":"tokenId","type":"uint256"},{"internalType":"uint256","name":"amount","type":"uint256"},{"internalType":"uint256","name":"price","type":"uint256"}],"stateMutability":"view","type":"function"},{"inputs":[],"name":"nextListingId","outputs":[{"internalType":"uint256","name":"","type":"uint256"}],"stateMutability":"view","type":"function"},{"inputs":[{"internalType":"address","name":"operator","type":"address"},{"internalType":"address","name":"from","type":"address"},{"internalType":"uint256[]","name":"ids","type":"uint256[]"},{"internalType":"uint256[]","name":"values","type":"uint256[]"},{"internalType":"bytes","name":"data","type":"bytes"}],"name":"onERC1155BatchReceived","outputs":[{"internalType":"bytes4","name":"","type":"bytes4"}],"stateMutability":"pure","type":"function"},{"inputs":[{"internalType":"address","name":"operator","type":"address"},{"internalType":"address","name":"from","type":"address"},{"internalType":"uint256","name":"tokenId","type":"uint256"},{"internalType":"uint256","name":"value","type":"uint256"},{"internalType":"bytes","name":"data","type":"bytes"}],"name":"onERC1155Received","outputs":[{"internalType":"bytes4","name":"","type":"bytes4"}],"stateMutability":"pure","type":"function"},{"inputs":[{"internalType":"address","name":"operator","type":"address"},{"internalType":"address","name":"from","type":"address"},{"internalType":"uint256","name":"tokenId","type":"uint256"},{"internalType":"bytes","name":"data","type":"bytes"}],"name":"onERC721Received","outputs":[{"internalType":"bytes4","name":"","type":"bytes4"}],"stateMutability":"pure","type":"function"},{"inputs":[],"name":"owner","outputs":[{"internalType":"address","name":"","type":"address"}],"stateMutability":"view","type":"function"},{"inputs":[],"name":"paused","outputs":[{"internalType":"bool","name":"","type":"bool"}],"stateMutability":"view","type":"function"},{"inputs":[],"name":"percentFee","outputs":[{"internalType":"uint256","name":"","type":"uint256"}],"stateMutability":"view","type":"function"},{"inputs":[{"internalType":"uint256","name":"_listingId","type":"uint256"}],"name":"purchaseNFT","outputs":[],"stateMutability":"payable","type":"function"},{"inputs":[],"name":"renounceOwnership","outputs":[],"stateMutability":"nonpayable","type":"function"},{"inputs":[{"internalType":"address","name":"token","type":"address"},{"internalType":"uint256","name":"amount","type":"uint256"}],"name":"rescueStuck","outputs":[],"stateMutability":"nonpayable","type":"function"},{"inputs":[{"internalType":"uint256","name":"_listingFee","type":"uint256"},{"internalType":"uint256","name":"_unListingFee","type":"uint256"}],"name":"setFee","outputs":[],"stateMutability":"nonpayable","type":"function"},{"inputs":[{"internalType":"address","name":"_feeRecipient","type":"address"}],"name":"setFeeRecipient","outputs":[],"stateMutability":"nonpayable","type":"function"},{"inputs":[{"internalType":"uint256","name":"_percent","type":"uint256"}],"name":"setPercentFee","outputs":[],"stateMutability":"nonpayable","type":"function"},{"inputs":[{"internalType":"bytes4","name":"interfaceId","type":"bytes4"}],"name":"supportsInterface","outputs":[{"internalType":"bool","name":"","type":"bool"}],"stateMutability":"pure","type":"function"},{"inputs":[{"internalType":"address","name":"newOwner","type":"address"}],"name":"transferOwnership","outputs":[],"stateMutability":"nonpayable","type":"function"},{"inputs":[{"internalType":"uint256","name":"_listingId","type":"uint256"}],"name":"unListing","outputs":[],"stateMutability":"payable","type":"function"},{"inputs":[],"name":"unListingFee","outputs":[{"internalType":"uint256","name":"","type":"uint256"}],"stateMutability":"view","type":"function"}],"evm":{"bytecode":{"linkReferences":{},"object":"608060405234801561001057600080fd5b50611a1d806100206000396000f3fe60806040526004361061014b5760003560e01c80636a2a4544116100b6578063bc197c811161006f578063bc197c811461038a578063de74e57b146103b9578063e74b981b14610455578063f23a6e6114610475578063f2fde38b146104a2578063fe7f0c5c146104c257600080fd5b80636a2a454414610306578063715018a6146103195780637176ba2f1461032e5780638129fc1c146103415780638da5cb5b14610356578063aaccf1ec1461037457600080fd5b80634690484011610108578063469048401461024f5780634c1a41151461028757806352f7c9881461029d57806359f4a907146102bd5780635c975abb146102d85780636a1b7ecc146102f057600080fd5b806301ffc9a7146101505780630550102314610196578063150b7a02146101b8578063150bde03146101fd5780632ca069a5146102105780633efae5f81461022b575b600080fd5b34801561015c57600080fd5b5061018161016b366004611566565b6001600160e01b0319166301ffc9a760e01b1490565b60405190151581526020015b60405180910390f35b3480156101a257600080fd5b506101b66101b1366004611597565b6104e2565b005b3480156101c457600080fd5b506101e46101d3366004611615565b630a85bd0160e11b95945050505050565b6040516001600160e01b0319909116815260200161018d565b6101b661020b366004611597565b6104ef565b34801561021c57600080fd5b506101e4636cdb3d1360e11b81565b34801561023757600080fd5b5061024160cc5481565b60405190815260200161018d565b34801561025b57600080fd5b5060ce5461026f906001600160a01b031681565b6040516001600160a01b03909116815260200161018d565b34801561029357600080fd5b5061024160cd5481565b3480156102a957600080fd5b506101b66102b8366004611684565b6106af565b3480156102c957600080fd5b506101e46380ac58cd60e01b81565b3480156102e457600080fd5b5060655460ff16610181565b3480156102fc57600080fd5b5061024160cb5481565b6101b6610314366004611597565b6106c2565b34801561032557600080fd5b506101b6610919565b6101b661033c3660046116a6565b61092d565b34801561034d57600080fd5b506101b6610b78565b34801561036257600080fd5b506033546001600160a01b031661026f565b34801561038057600080fd5b5061024160ca5481565b34801561039657600080fd5b506101e46103a5366004611738565b63bc197c8160e01b98975050505050505050565b3480156103c557600080fd5b506104176103d4366004611597565b60c9602052600090815260409020805460018201546002830154600384015460048501546005909501546001600160a01b03948516959385169490921692909186565b604080516001600160a01b039788168152958716602087015293909516928401929092526060830152608082015260a081019190915260c00161018d565b34801561046157600080fd5b506101b66104703660046117f3565b610c98565b34801561048157600080fd5b506101e461049036600461180e565b63f23a6e6160e01b9695505050505050565b3480156104ae57600080fd5b506101b66104bd3660046117f3565b610cc2565b3480156104ce57600080fd5b506101b66104dd366004611886565b610d38565b6104ea610dc5565b60cd55565b6104f7610e1f565b6104ff610e65565b600081815260c96020908152604091829020825160c08101845281546001600160a01b0390811680835260018401548216948301949094526002830154169381019390935260038101546060840152600481015460808401526005015460a08301526105a35760405162461bcd60e51b815260206004820152600e60248201526d139195081b9bdd081b1a5cdd195960921b60448201526064015b60405180910390fd5b80516001600160a01b03163314156105ee5760405162461bcd60e51b815260206004820152600e60248201526d2cb7ba9030b9329039b2b63632b960911b604482015260640161059a565b61060681602001513383600001518460a00151610ebf565b5061062081604001513033846060015185608001516110f3565b600082815260c96020908152604080832080546001600160a01b0319908116825560018201805482169055600282018054909116905560038101849055600481018490556005019290925581513381529081018490527ff025e0c58bf784c030caa814abce9ca7cf237831d4dff71c2ade33bed4d8dd22910160405180910390a1506106ac6001609755565b50565b6106b7610dc5565b60cb9190915560cc55565b6106ca610e1f565b6106d2610e65565b600081815260c96020908152604091829020825160c08101845281546001600160a01b0390811680835260018401548216948301949094526002830154169381019390935260038101546060840152600481015460808401526005015460a08301526107705760405162461bcd60e51b815260206004820152600d60248201526c24a2103737ba1039b2b63632b960991b604482015260640161059a565b80516001600160a01b031633146107ba5760405162461bcd60e51b815260206004820152600e60248201526d2cb7ba903737ba1039b2b63632b960911b604482015260640161059a565b60cc5434146108035760405162461bcd60e51b8152602060048201526015602482015274496e76616c696420756e6c697374696e672066656560581b604482015260640161059a565b6108208160400151308360000151846060015185608001516110f3565b60ce5460cb546040516000926001600160a01b031691908381818185875af1925050503d806000811461086f576040519150601f19603f3d011682016040523d82523d6000602084013e610874565b606091505b50509050806108955760405162461bcd60e51b815260040161059a906118b0565b6040518381527f2744ae55a8e75826dddb5008225144c5511db28443db592f09b9e2d899ce6a149060200160405180910390a15050600081815260c96020526040812080546001600160a01b031990811682556001820180548216905560028201805490911690556003810182905560048101829055600501556106ac6001609755565b610921610dc5565b61092b6000611377565b565b610935610e1f565b61093d610e65565b60cb5434146109845760405162461bcd60e51b8152602060048201526013602482015272496e76616c6964206c697374696e672066656560681b604482015260640161059a565b600082116109d45760405162461bcd60e51b815260206004820152601d60248201527f416d6f756e74206d7573742062652067726561746572207468616e2030000000604482015260640161059a565b60ca805490819060006109e683611907565b90915550506040805160c081018252338082526001600160a01b0388811660208085019182528b8316858701908152606086018b8152608087018b815260a088018b815260008b815260c990955298909320965187549086166001600160a01b031991821617885593516001880180549187169186169190911790559051600287018054919095169316929092179092555160038401555160048301559151600590910155610a999087903087876110f3565b60ce5460cb546040516000926001600160a01b031691908381818185875af1925050503d8060008114610ae8576040519150601f19603f3d011682016040523d82523d6000602084013e610aed565b606091505b5050905080610b0e5760405162461bcd60e51b815260040161059a906118b0565b604080513381526001600160a01b038816602082015290810186905260608101859052608081018490527fbe7d9754861a6bb6c9b999fdc3a45f27cc82cdefdef14a32f8b581ce120011819060a00160405180910390a15050610b716001609755565b5050505050565b600054610100900460ff1615808015610b985750600054600160ff909116105b80610bb25750303b158015610bb2575060005460ff166001145b610c155760405162461bcd60e51b815260206004820152602e60248201527f496e697469616c697a61626c653a20636f6e747261637420697320616c72656160448201526d191e481a5b9a5d1a585b1a5e995960921b606482015260840161059a565b6000805460ff191660011790558015610c38576000805461ff0019166101001790555b610c406113c9565b610c486113fc565b610c5061142c565b80156106ac576000805461ff0019169055604051600181527f7f26b83ff96e1f2b6a682f133852f6798a09c465da95921460cefb38474024989060200160405180910390a150565b610ca0610dc5565b60ce80546001600160a01b0319166001600160a01b0392909216919091179055565b610cca610dc5565b6001600160a01b038116610d2f5760405162461bcd60e51b815260206004820152602660248201527f4f776e61626c653a206e6577206f776e657220697320746865207a65726f206160448201526564647265737360d01b606482015260840161059a565b6106ac81611377565b610d40610dc5565b60405163a9059cbb60e01b8152336004820152602481018290526001600160a01b0383169063a9059cbb90604401602060405180830381600087803b158015610d8857600080fd5b505af1158015610d9c573d6000803e3d6000fd5b505050506040513d601f19601f82011682018060405250810190610dc09190611922565b505050565b6033546001600160a01b0316331461092b5760405162461bcd60e51b815260206004820181905260248201527f4f776e61626c653a2063616c6c6572206973206e6f7420746865206f776e6572604482015260640161059a565b60655460ff161561092b5760405162461bcd60e51b815260206004820152601060248201526f14185d5cd8589b194e881c185d5cd95960821b604482015260640161059a565b60026097541415610eb85760405162461bcd60e51b815260206004820152601f60248201527f5265656e7472616e637947756172643a207265656e7472616e742063616c6c00604482015260640161059a565b6002609755565b60006001600160a01b0385166110955781341015610f175760405162461bcd60e51b8152602060048201526015602482015274139bdd08195b9bdd59da08115d1a195c881cd95b9d605a1b604482015260640161059a565b6000606460cd5484610f299190611944565b610f339190611963565b90506000610f418285611985565b60ce546040519192506000916001600160a01b039091169084908381818185875af1925050503d8060008114610f93576040519150601f19603f3d011682016040523d82523d6000602084013e610f98565b606091505b5050905080610fe95760405162461bcd60e51b815260206004820152601c60248201527f4661696c656420746f2073656e6420457468657220666f722066656500000000604482015260640161059a565b6000866001600160a01b03168360405160006040518083038185875af1925050503d8060008114611036576040519150601f19603f3d011682016040523d82523d6000602084013e61103b565b606091505b505090508061108c5760405162461bcd60e51b815260206004820152601e60248201527f4661696c656420746f2073656e6420457468657220746f2073656c6c65720000604482015260640161059a565b505050506110eb565b6000606460cd54846110a79190611944565b6110b19190611963565b905060006110bf8285611985565b60ce549091506110dc90889088906001600160a01b031685611453565b6110e887878784611453565b50505b509392505050565b600081116111305760405162461bcd60e51b815260206004820152600a6024820152690416d6f756e74203e20360b41b604482015260640161059a565b6040516301ffc9a760e01b81526380ac58cd60e01b60048201526001600160a01b038616906301ffc9a79060240160206040518083038186803b15801561117657600080fd5b505afa15801561118a573d6000803e3d6000fd5b505050506040513d601f19601f820116820180604052508101906111ae9190611922565b1561126757806001146111f85760405162461bcd60e51b8152602060048201526012602482015271416d6f756e7420657263373231203d3d203160701b604482015260640161059a565b604051632142170760e11b81526001600160a01b0385811660048301528481166024830152604482018490528616906342842e0e90606401600060405180830381600087803b15801561124a57600080fd5b505af115801561125e573d6000803e3d6000fd5b50505050610b71565b6040516301ffc9a760e01b8152636cdb3d1360e11b60048201526001600160a01b038616906301ffc9a79060240160206040518083038186803b1580156112ad57600080fd5b505afa1580156112c1573d6000803e3d6000fd5b505050506040513d601f19601f820116820180604052508101906112e59190611922565b15610b7157604051637921219560e11b81526001600160a01b0385811660048301528481166024830152604482018490526064820183905260a06084830152600060a483015286169063f242432a9060c401600060405180830381600087803b15801561135157600080fd5b505af1158015611365573d6000803e3d6000fd5b505050505050505050565b6001609755565b603380546001600160a01b038381166001600160a01b0319831681179093556040519116919082907f8be0079c531659141344cd1fd0a4f28419497f9722a3daafe3b4186f6b6457e090600090a35050565b600054610100900460ff166113f05760405162461bcd60e51b815260040161059a9061199c565b6065805460ff19169055565b600054610100900460ff166114235760405162461bcd60e51b815260040161059a9061199c565b61092b33611377565b600054610100900460ff166113705760405162461bcd60e51b815260040161059a9061199c565b600081116114905760405162461bcd60e51b815260206004820152600a6024820152690416d6f756e74203e20360b41b604482015260640161059a565b6040516323b872dd60e01b81526001600160a01b038481166004830152838116602483015260448201839052600091908616906323b872dd90606401602060405180830381600087803b1580156114e657600080fd5b505af11580156114fa573d6000803e3d6000fd5b505050506040513d601f19601f8201168201806040525081019061151e9190611922565b905080610b715760405162461bcd60e51b8152602060048201526016602482015275115490cb4c8c081d1c985b9cd9995c8819985a5b195960521b604482015260640161059a565b60006020828403121561157857600080fd5b81356001600160e01b03198116811461159057600080fd5b9392505050565b6000602082840312156115a957600080fd5b5035919050565b80356001600160a01b03811681146115c757600080fd5b919050565b60008083601f8401126115de57600080fd5b50813567ffffffffffffffff8111156115f657600080fd5b60208301915083602082850101111561160e57600080fd5b9250929050565b60008060008060006080868803121561162d57600080fd5b611636866115b0565b9450611644602087016115b0565b935060408601359250606086013567ffffffffffffffff81111561166757600080fd5b611673888289016115cc565b969995985093965092949392505050565b6000806040838503121561169757600080fd5b50508035926020909101359150565b600080600080600060a086880312156116be57600080fd5b6116c7866115b0565b94506116d5602087016115b0565b94979496505050506040830135926060810135926080909101359150565b60008083601f84011261170557600080fd5b50813567ffffffffffffffff81111561171d57600080fd5b6020830191508360208260051b850101111561160e57600080fd5b60008060008060008060008060a0898b03121561175457600080fd5b61175d896115b0565b975061176b60208a016115b0565b9650604089013567ffffffffffffffff8082111561178857600080fd5b6117948c838d016116f3565b909850965060608b01359150808211156117ad57600080fd5b6117b98c838d016116f3565b909650945060808b01359150808211156117d257600080fd5b506117df8b828c016115cc565b999c989b5096995094979396929594505050565b60006020828403121561180557600080fd5b611590826115b0565b60008060008060008060a0878903121561182757600080fd5b611830876115b0565b955061183e602088016115b0565b94506040870135935060608701359250608087013567ffffffffffffffff81111561186857600080fd5b61187489828a016115cc565b979a9699509497509295939492505050565b6000806040838503121561189957600080fd5b6118a2836115b0565b946020939093013593505050565b60208082526021908201527f4661696c656420746f2073656e6420457468657220746f20726563697069656e6040820152601d60fa1b606082015260800190565b634e487b7160e01b600052601160045260246000fd5b600060001982141561191b5761191b6118f1565b5060010190565b60006020828403121561193457600080fd5b8151801515811461159057600080fd5b600081600019048311821515161561195e5761195e6118f1565b500290565b60008261198057634e487b7160e01b600052601260045260246000fd5b500490565b600082821015611997576119976118f1565b500390565b6020808252602b908201527f496e697469616c697a61626c653a20636f6e7472616374206973206e6f74206960408201526a6e697469616c697a696e6760a81b60608201526080019056fea2646970667358221220a46db5cccb00bb32e9561db2a30d4b3d2635a14caff02dffeaaee031b73dcab964736f6c63430008090033","opcodes":"PUSH1 0x80 PUSH1 0x40 MSTORE CALLVALUE DUP1 ISZERO PUSH2 0x10 JUMPI PUSH1 0x0 DUP1 REVERT JUMPDEST POP PUSH2 0x1A1D DUP1 PUSH2 0x20 PUSH1 0x0 CODECOPY PUSH1 0x0 RETURN INVALID PUSH1 0x80 PUSH1 0x40 MSTORE PUSH1 0x4 CALLDATASIZE LT PUSH2 0x14B JUMPI PUSH1 0x0 CALLDATALOAD PUSH1 0xE0 SHR DUP1 PUSH4 0x6A2A4544 GT PUSH2 0xB6 JUMPI DUP1 PUSH4 0xBC197C81 GT PUSH2 0x6F JUMPI DUP1 PUSH4 0xBC197C81 EQ PUSH2 0x38A JUMPI DUP1 PUSH4 0xDE74E57B EQ PUSH2 0x3B9 JUMPI DUP1 PUSH4 0xE74B981B EQ PUSH2 0x455 JUMPI DUP1 PUSH4 0xF23A6E61 EQ PUSH2 0x475 JUMPI DUP1 PUSH4 0xF2FDE38B EQ PUSH2 0x4A2 JUMPI DUP1 PUSH4 0xFE7F0C5C EQ PUSH2 0x4C2 JUMPI PUSH1 0x0 DUP1 REVERT JUMPDEST DUP1 PUSH4 0x6A2A4544 EQ PUSH2 0x306 JUMPI DUP1 PUSH4 0x715018A6 EQ PUSH2 0x319 JUMPI DUP1 PUSH4 0x7176BA2F EQ PUSH2 0x32E JUMPI DUP1 PUSH4 0x8129FC1C EQ PUSH2 0x341 JUMPI DUP1 PUSH4 0x8DA5CB5B EQ PUSH2 0x356 JUMPI DUP1 PUSH4 0xAACCF1EC EQ PUSH2 0x374 JUMPI PUSH1 0x0 DUP1 REVERT JUMPDEST DUP1 PUSH4 0x46904840 GT PUSH2 0x108 JUMPI DUP1 PUSH4 0x46904840 EQ PUSH2 0x24F JUMPI DUP1 PUSH4 0x4C1A4115 EQ PUSH2 0x287 JUMPI DUP1 PUSH4 0x52F7C988 EQ PUSH2 0x29D JUMPI DUP1 PUSH4 0x59F4A907 EQ PUSH2 0x2BD JUMPI DUP1 PUSH4 0x5C975ABB EQ PUSH2 0x2D8 JUMPI DUP1 PUSH4 0x6A1B7ECC EQ PUSH2 0x2F0 JUMPI PUSH1 0x0 DUP1 REVERT JUMPDEST DUP1 PUSH4 0x1FFC9A7 EQ PUSH2 0x150 JUMPI DUP1 PUSH4 0x5501023 EQ PUSH2 0x196 JUMPI DUP1 PUSH4 0x150B7A02 EQ PUSH2 0x1B8 JUMPI DUP1 PUSH4 0x150BDE03 EQ PUSH2 0x1FD JUMPI DUP1 PUSH4 0x2CA069A5 EQ PUSH2 0x210 JUMPI DUP1 PUSH4 0x3EFAE5F8 EQ PUSH2 0x22B JUMPI JUMPDEST PUSH1 0x0 DUP1 REVERT JUMPDEST CALLVALUE DUP1 ISZERO PUSH2 0x15C JUMPI PUSH1 0x0 DUP1 REVERT JUMPDEST POP PUSH2 0x181 PUSH2 0x16B CALLDATASIZE PUSH1 0x4 PUSH2 0x1566 JUMP JUMPDEST PUSH1 0x1 PUSH1 0x1 PUSH1 0xE0 SHL SUB NOT AND PUSH4 0x1FFC9A7 PUSH1 0xE0 SHL EQ SWAP1 JUMP JUMPDEST PUSH1 0x40 MLOAD SWAP1 ISZERO ISZERO DUP2 MSTORE PUSH1 0x20 ADD JUMPDEST PUSH1 0x40 MLOAD DUP1 SWAP2 SUB SWAP1 RETURN JUMPDEST CALLVALUE DUP1 ISZERO PUSH2 0x1A2 JUMPI PUSH1 0x0 DUP1 REVERT JUMPDEST POP PUSH2 0x1B6 PUSH2 0x1B1 CALLDATASIZE PUSH1 0x4 PUSH2 0x1597 JUMP JUMPDEST PUSH2 0x4E2 JUMP JUMPDEST STOP JUMPDEST CALLVALUE DUP1 ISZERO PUSH2 0x1C4 JUMPI PUSH1 0x0 DUP1 REVERT JUMPDEST POP PUSH2 0x1E4 PUSH2 0x1D3 CALLDATASIZE PUSH1 0x4 PUSH2 0x1615 JUMP JUMPDEST PUSH4 0xA85BD01 PUSH1 0xE1 SHL SWAP6 SWAP5 POP POP POP POP POP JUMP JUMPDEST PUSH1 0x40 MLOAD PUSH1 0x1 PUSH1 0x1 PUSH1 0xE0 SHL SUB NOT SWAP1 SWAP2 AND DUP2 MSTORE PUSH1 0x20 ADD PUSH2 0x18D JUMP JUMPDEST PUSH2 0x1B6 PUSH2 0x20B CALLDATASIZE PUSH1 0x4 PUSH2 0x1597 JUMP JUMPDEST PUSH2 0x4EF JUMP JUMPDEST CALLVALUE DUP1 ISZERO PUSH2 0x21C JUMPI PUSH1 0x0 DUP1 REVERT JUMPDEST POP PUSH2 0x1E4 PUSH4 0x6CDB3D13 PUSH1 0xE1 SHL DUP2 JUMP JUMPDEST CALLVALUE DUP1 ISZERO PUSH2 0x237 JUMPI PUSH1 0x0 DUP1 REVERT JUMPDEST POP PUSH2 0x241 PUSH1 0xCC SLOAD DUP2 JUMP JUMPDEST PUSH1 0x40 MLOAD SWAP1 DUP2 MSTORE PUSH1 0x20 ADD PUSH2 0x18D JUMP JUMPDEST CALLVALUE DUP1 ISZERO PUSH2 0x25B JUMPI PUSH1 0x0 DUP1 REVERT JUMPDEST POP PUSH1 0xCE SLOAD PUSH2 0x26F SWAP1 PUSH1 0x1 PUSH1 0x1 PUSH1 0xA0 SHL SUB AND DUP2 JUMP JUMPDEST PUSH1 0x40 MLOAD PUSH1 0x1 PUSH1 0x1 PUSH1 0xA0 SHL SUB SWAP1 SWAP2 AND DUP2 MSTORE PUSH1 0x20 ADD PUSH2 0x18D JUMP JUMPDEST CALLVALUE DUP1 ISZERO PUSH2 0x293 JUMPI PUSH1 0x0 DUP1 REVERT JUMPDEST POP PUSH2 0x241 PUSH1 0xCD SLOAD DUP2 JUMP JUMPDEST CALLVALUE DUP1 ISZERO PUSH2 0x2A9 JUMPI PUSH1 0x0 DUP1 REVERT JUMPDEST POP PUSH2 0x1B6 PUSH2 0x2B8 CALLDATASIZE PUSH1 0x4 PUSH2 0x1684 JUMP JUMPDEST PUSH2 0x6AF JUMP JUMPDEST CALLVALUE DUP1 ISZERO PUSH2 0x2C9 JUMPI PUSH1 0x0 DUP1 REVERT JUMPDEST POP PUSH2 0x1E4 PUSH4 0x80AC58CD PUSH1 0xE0 SHL DUP2 JUMP JUMPDEST CALLVALUE DUP1 ISZERO PUSH2 0x2E4 JUMPI PUSH1 0x0 DUP1 REVERT JUMPDEST POP PUSH1 0x65 SLOAD PUSH1 0xFF AND PUSH2 0x181 JUMP JUMPDEST CALLVALUE DUP1 ISZERO PUSH2 0x2FC JUMPI PUSH1 0x0 DUP1 REVERT JUMPDEST POP PUSH2 0x241 PUSH1 0xCB SLOAD DUP2 JUMP JUMPDEST PUSH2 0x1B6 PUSH2 0x314 CALLDATASIZE PUSH1 0x4 PUSH2 0x1597 JUMP JUMPDEST PUSH2 0x6C2 JUMP JUMPDEST CALLVALUE DUP1 ISZERO PUSH2 0x325 JUMPI PUSH1 0x0 DUP1 REVERT JUMPDEST POP PUSH2 0x1B6 PUSH2 0x919 JUMP JUMPDEST PUSH2 0x1B6 PUSH2 0x33C CALLDATASIZE PUSH1 0x4 PUSH2 0x16A6 JUMP JUMPDEST PUSH2 0x92D JUMP JUMPDEST CALLVALUE DUP1 ISZERO PUSH2 0x34D JUMPI PUSH1 0x0 DUP1 REVERT JUMPDEST POP PUSH2 0x1B6 PUSH2 0xB78 JUMP JUMPDEST CALLVALUE DUP1 ISZERO PUSH2 0x362 JUMPI PUSH1 0x0 DUP1 REVERT JUMPDEST POP PUSH1 0x33 SLOAD PUSH1 0x1 PUSH1 0x1 PUSH1 0xA0 SHL SUB AND PUSH2 0x26F JUMP JUMPDEST CALLVALUE DUP1 ISZERO PUSH2 0x380 JUMPI PUSH1 0x0 DUP1 REVERT JUMPDEST POP PUSH2 0x241 PUSH1 0xCA SLOAD DUP2 JUMP JUMPDEST CALLVALUE DUP1 ISZERO PUSH2 0x396 JUMPI PUSH1 0x0 DUP1 REVERT JUMPDEST POP PUSH2 0x1E4 PUSH2 0x3A5 CALLDATASIZE PUSH1 0x4 PUSH2 0x1738 JUMP JUMPDEST PUSH4 0xBC197C81 PUSH1 0xE0 SHL SWAP9 SWAP8 POP POP POP POP POP POP POP POP JUMP JUMPDEST CALLVALUE DUP1 ISZERO PUSH2 0x3C5 JUMPI PUSH1 0x0 DUP1 REVERT JUMPDEST POP PUSH2 0x417 PUSH2 0x3D4 CALLDATASIZE PUSH1 0x4 PUSH2 0x1597 JUMP JUMPDEST PUSH1 0xC9 PUSH1 0x20 MSTORE PUSH1 0x0 SWAP1 DUP2 MSTORE PUSH1 0x40 SWAP1 KECCAK256 DUP1 SLOAD PUSH1 0x1 DUP3 ADD SLOAD PUSH1 0x2 DUP4 ADD SLOAD PUSH1 0x3 DUP5 ADD SLOAD PUSH1 0x4 DUP6 ADD SLOAD PUSH1 0x5 SWAP1 SWAP6 ADD SLOAD PUSH1 0x1 PUSH1 0x1 PUSH1 0xA0 SHL SUB SWAP5 DUP6 AND SWAP6 SWAP4 DUP6 AND SWAP5 SWAP1 SWAP3 AND SWAP3 SWAP1 SWAP2 DUP7 JUMP JUMPDEST PUSH1 0x40 DUP1 MLOAD PUSH1 0x1 PUSH1 0x1 PUSH1 0xA0 SHL SUB SWAP8 DUP9 AND DUP2 MSTORE SWAP6 DUP8 AND PUSH1 0x20 DUP8 ADD MSTORE SWAP4 SWAP1 SWAP6 AND SWAP3 DUP5 ADD SWAP3 SWAP1 SWAP3 MSTORE PUSH1 0x60 DUP4 ADD MSTORE PUSH1 0x80 DUP3 ADD MSTORE PUSH1 0xA0 DUP2 ADD SWAP2 SWAP1 SWAP2 MSTORE PUSH1 0xC0 ADD PUSH2 0x18D JUMP JUMPDEST CALLVALUE DUP1 ISZERO PUSH2 0x461 JUMPI PUSH1 0x0 DUP1 REVERT JUMPDEST POP PUSH2 0x1B6 PUSH2 0x470 CALLDATASIZE PUSH1 0x4 PUSH2 0x17F3 JUMP JUMPDEST PUSH2 0xC98 JUMP JUMPDEST CALLVALUE DUP1 ISZERO PUSH2 0x481 JUMPI PUSH1 0x0 DUP1 REVERT JUMPDEST POP PUSH2 0x1E4 PUSH2 0x490 CALLDATASIZE PUSH1 0x4 PUSH2 0x180E JUMP JUMPDEST PUSH4 0xF23A6E61 PUSH1 0xE0 SHL SWAP7 SWAP6 POP POP POP POP POP POP JUMP JUMPDEST CALLVALUE DUP1 ISZERO PUSH2 0x4AE JUMPI PUSH1 0x0 DUP1 REVERT JUMPDEST POP PUSH2 0x1B6 PUSH2 0x4BD CALLDATASIZE PUSH1 0x4 PUSH2 0x17F3 JUMP JUMPDEST PUSH2 0xCC2 JUMP JUMPDEST CALLVALUE DUP1 ISZERO PUSH2 0x4CE JUMPI PUSH1 0x0 DUP1 REVERT JUMPDEST POP PUSH2 0x1B6 PUSH2 0x4DD CALLDATASIZE PUSH1 0x4 PUSH2 0x1886 JUMP JUMPDEST PUSH2 0xD38 JUMP JUMPDEST PUSH2 0x4EA PUSH2 0xDC5 JUMP JUMPDEST PUSH1 0xCD SSTORE JUMP JUMPDEST PUSH2 0x4F7 PUSH2 0xE1F JUMP JUMPDEST PUSH2 0x4FF PUSH2 0xE65 JUMP JUMPDEST PUSH1 0x0 DUP2 DUP2 MSTORE PUSH1 0xC9 PUSH1 0x20 SWAP1 DUP2 MSTORE PUSH1 0x40 SWAP2 DUP3 SWAP1 KECCAK256 DUP3 MLOAD PUSH1 0xC0 DUP2 ADD DUP5 MSTORE DUP2 SLOAD PUSH1 0x1 PUSH1 0x1 PUSH1 0xA0 SHL SUB SWAP1 DUP2 AND DUP1 DUP4 MSTORE PUSH1 0x1 DUP5 ADD SLOAD DUP3 AND SWAP5 DUP4 ADD SWAP5 SWAP1 SWAP5 MSTORE PUSH1 0x2 DUP4 ADD SLOAD AND SWAP4 DUP2 ADD SWAP4 SWAP1 SWAP4 MSTORE PUSH1 0x3 DUP2 ADD SLOAD PUSH1 0x60 DUP5 ADD MSTORE PUSH1 0x4 DUP2 ADD SLOAD PUSH1 0x80 DUP5 ADD MSTORE PUSH1 0x5 ADD SLOAD PUSH1 0xA0 DUP4 ADD MSTORE PUSH2 0x5A3 JUMPI PUSH1 0x40 MLOAD PUSH3 0x461BCD PUSH1 0xE5 SHL DUP2 MSTORE PUSH1 0x20 PUSH1 0x4 DUP3 ADD MSTORE PUSH1 0xE PUSH1 0x24 DUP3 ADD MSTORE PUSH14 0x139195081B9BDD081B1A5CDD1959 PUSH1 0x92 SHL PUSH1 0x44 DUP3 ADD MSTORE PUSH1 0x64 ADD JUMPDEST PUSH1 0x40 MLOAD DUP1 SWAP2 SUB SWAP1 REVERT JUMPDEST DUP1 MLOAD PUSH1 0x1 PUSH1 0x1 PUSH1 0xA0 SHL SUB AND CALLER EQ ISZERO PUSH2 0x5EE JUMPI PUSH1 0x40 MLOAD PUSH3 0x461BCD PUSH1 0xE5 SHL DUP2 MSTORE PUSH1 0x20 PUSH1 0x4 DUP3 ADD MSTORE PUSH1 0xE PUSH1 0x24 DUP3 ADD MSTORE PUSH14 0x2CB7BA9030B9329039B2B63632B9 PUSH1 0x91 SHL PUSH1 0x44 DUP3 ADD MSTORE PUSH1 0x64 ADD PUSH2 0x59A JUMP JUMPDEST PUSH2 0x606 DUP2 PUSH1 0x20 ADD MLOAD CALLER DUP4 PUSH1 0x0 ADD MLOAD DUP5 PUSH1 0xA0 ADD MLOAD PUSH2 0xEBF JUMP JUMPDEST POP PUSH2 0x620 DUP2 PUSH1 0x40 ADD MLOAD ADDRESS CALLER DUP5 PUSH1 0x60 ADD MLOAD DUP6 PUSH1 0x80 ADD MLOAD PUSH2 0x10F3 JUMP JUMPDEST PUSH1 0x0 DUP3 DUP2 MSTORE PUSH1 0xC9 PUSH1 0x20 SWAP1 DUP2 MSTORE PUSH1 0x40 DUP1 DUP4 KECCAK256 DUP1 SLOAD PUSH1 0x1 PUSH1 0x1 PUSH1 0xA0 SHL SUB NOT SWAP1 DUP2 AND DUP3 SSTORE PUSH1 0x1 DUP3 ADD DUP1 SLOAD DUP3 AND SWAP1 SSTORE PUSH1 0x2 DUP3 ADD DUP1 SLOAD SWAP1 SWAP2 AND SWAP1 SSTORE PUSH1 0x3 DUP2 ADD DUP5 SWAP1 SSTORE PUSH1 0x4 DUP2 ADD DUP5 SWAP1 SSTORE PUSH1 0x5 ADD SWAP3 SWAP1 SWAP3 SSTORE DUP2 MLOAD CALLER DUP2 MSTORE SWAP1 DUP2 ADD DUP5 SWAP1 MSTORE PUSH32 0xF025E0C58BF784C030CAA814ABCE9CA7CF237831D4DFF71C2ADE33BED4D8DD22 SWAP2 ADD PUSH1 0x40 MLOAD DUP1 SWAP2 SUB SWAP1 LOG1 POP PUSH2 0x6AC PUSH1 0x1 PUSH1 0x97 SSTORE JUMP JUMPDEST POP JUMP JUMPDEST PUSH2 0x6B7 PUSH2 0xDC5 JUMP JUMPDEST PUSH1 0xCB SWAP2 SWAP1 SWAP2 SSTORE PUSH1 0xCC SSTORE JUMP JUMPDEST PUSH2 0x6CA PUSH2 0xE1F JUMP JUMPDEST PUSH2 0x6D2 PUSH2 0xE65 JUMP JUMPDEST PUSH1 0x0 DUP2 DUP2 MSTORE PUSH1 0xC9 PUSH1 0x20 SWAP1 DUP2 MSTORE PUSH1 0x40 SWAP2 DUP3 SWAP1 KECCAK256 DUP3 MLOAD PUSH1 0xC0 DUP2 ADD DUP5 MSTORE DUP2 SLOAD PUSH1 0x1 PUSH1 0x1 PUSH1 0xA0 SHL SUB SWAP1 DUP2 AND DUP1 DUP4 MSTORE PUSH1 0x1 DUP5 ADD SLOAD DUP3 AND SWAP5 DUP4 ADD SWAP5 SWAP1 SWAP5 MSTORE PUSH1 0x2 DUP4 ADD SLOAD AND SWAP4 DUP2 ADD SWAP4 SWAP1 SWAP4 MSTORE PUSH1 0x3 DUP2 ADD SLOAD PUSH1 0x60 DUP5 ADD MSTORE PUSH1 0x4 DUP2 ADD SLOAD PUSH1 0x80 DUP5 ADD MSTORE PUSH1 0x5 ADD SLOAD PUSH1 0xA0 DUP4 ADD MSTORE PUSH2 0x770 JUMPI PUSH1 0x40 MLOAD PUSH3 0x461BCD PUSH1 0xE5 SHL DUP2 MSTORE PUSH1 0x20 PUSH1 0x4 DUP3 ADD MSTORE PUSH1 0xD PUSH1 0x24 DUP3 ADD MSTORE PUSH13 0x24A2103737BA1039B2B63632B9 PUSH1 0x99 SHL PUSH1 0x44 DUP3 ADD MSTORE PUSH1 0x64 ADD PUSH2 0x59A JUMP JUMPDEST DUP1 MLOAD PUSH1 0x1 PUSH1 0x1 PUSH1 0xA0 SHL SUB AND CALLER EQ PUSH2 0x7BA JUMPI PUSH1 0x40 MLOAD PUSH3 0x461BCD PUSH1 0xE5 SHL DUP2 MSTORE PUSH1 0x20 PUSH1 0x4 DUP3 ADD MSTORE PUSH1 0xE PUSH1 0x24 DUP3 ADD MSTORE PUSH14 0x2CB7BA903737BA1039B2B63632B9 PUSH1 0x91 SHL PUSH1 0x44 DUP3 ADD MSTORE PUSH1 0x64 ADD PUSH2 0x59A JUMP JUMPDEST PUSH1 0xCC SLOAD CALLVALUE EQ PUSH2 0x803 JUMPI PUSH1 0x40 MLOAD PUSH3 0x461BCD PUSH1 0xE5 SHL DUP2 MSTORE PUSH1 0x20 PUSH1 0x4 DUP3 ADD MSTORE PUSH1 0x15 PUSH1 0x24 DUP3 ADD MSTORE PUSH21 0x496E76616C696420756E6C697374696E6720666565 PUSH1 0x58 SHL PUSH1 0x44 DUP3 ADD MSTORE PUSH1 0x64 ADD PUSH2 0x59A JUMP JUMPDEST PUSH2 0x820 DUP2 PUSH1 0x40 ADD MLOAD ADDRESS DUP4 PUSH1 0x0 ADD MLOAD DUP5 PUSH1 0x60 ADD MLOAD DUP6 PUSH1 0x80 ADD MLOAD PUSH2 0x10F3 JUMP JUMPDEST PUSH1 0xCE SLOAD PUSH1 0xCB SLOAD PUSH1 0x40 MLOAD PUSH1 0x0 SWAP3 PUSH1 0x1 PUSH1 0x1 PUSH1 0xA0 SHL SUB AND SWAP2 SWAP1 DUP4 DUP2 DUP2 DUP2 DUP6 DUP8 GAS CALL SWAP3 POP POP POP RETURNDATASIZE DUP1 PUSH1 0x0 DUP2 EQ PUSH2 0x86F JUMPI PUSH1 0x40 MLOAD SWAP2 POP PUSH1 0x1F NOT PUSH1 0x3F RETURNDATASIZE ADD AND DUP3 ADD PUSH1 0x40 MSTORE RETURNDATASIZE DUP3 MSTORE RETURNDATASIZE PUSH1 0x0 PUSH1 0x20 DUP5 ADD RETURNDATACOPY PUSH2 0x874 JUMP JUMPDEST PUSH1 0x60 SWAP2 POP JUMPDEST POP POP SWAP1 POP DUP1 PUSH2 0x895 JUMPI PUSH1 0x40 MLOAD PUSH3 0x461BCD PUSH1 0xE5 SHL DUP2 MSTORE PUSH1 0x4 ADD PUSH2 0x59A SWAP1 PUSH2 0x18B0 JUMP JUMPDEST PUSH1 0x40 MLOAD DUP4 DUP2 MSTORE PUSH32 0x2744AE55A8E75826DDDB5008225144C5511DB28443DB592F09B9E2D899CE6A14 SWAP1 PUSH1 0x20 ADD PUSH1 0x40 MLOAD DUP1 SWAP2 SUB SWAP1 LOG1 POP POP PUSH1 0x0 DUP2 DUP2 MSTORE PUSH1 0xC9 PUSH1 0x20 MSTORE PUSH1 0x40 DUP2 KECCAK256 DUP1 SLOAD PUSH1 0x1 PUSH1 0x1 PUSH1 0xA0 SHL SUB NOT SWAP1 DUP2 AND DUP3 SSTORE PUSH1 0x1 DUP3 ADD DUP1 SLOAD DUP3 AND SWAP1 SSTORE PUSH1 0x2 DUP3 ADD DUP1 SLOAD SWAP1 SWAP2 AND SWAP1 SSTORE PUSH1 0x3 DUP2 ADD DUP3 SWAP1 SSTORE PUSH1 0x4 DUP2 ADD DUP3 SWAP1 SSTORE PUSH1 0x5 ADD SSTORE PUSH2 0x6AC PUSH1 0x1 PUSH1 0x97 SSTORE JUMP JUMPDEST PUSH2 0x921 PUSH2 0xDC5 JUMP JUMPDEST PUSH2 0x92B PUSH1 0x0 PUSH2 0x1377 JUMP JUMPDEST JUMP JUMPDEST PUSH2 0x935 PUSH2 0xE1F JUMP JUMPDEST PUSH2 0x93D PUSH2 0xE65 JUMP JUMPDEST PUSH1 0xCB SLOAD CALLVALUE EQ PUSH2 0x984 JUMPI PUSH1 0x40 MLOAD PUSH3 0x461BCD PUSH1 0xE5 SHL DUP2 MSTORE PUSH1 0x20 PUSH1 0x4 DUP3 ADD MSTORE PUSH1 0x13 PUSH1 0x24 DUP3 ADD MSTORE PUSH19 0x496E76616C6964206C697374696E6720666565 PUSH1 0x68 SHL PUSH1 0x44 DUP3 ADD MSTORE PUSH1 0x64 ADD PUSH2 0x59A JUMP JUMPDEST PUSH1 0x0 DUP3 GT PUSH2 0x9D4 JUMPI PUSH1 0x40 MLOAD PUSH3 0x461BCD PUSH1 0xE5 SHL DUP2 MSTORE PUSH1 0x20 PUSH1 0x4 DUP3 ADD MSTORE PUSH1 0x1D PUSH1 0x24 DUP3 ADD MSTORE PUSH32 0x416D6F756E74206D7573742062652067726561746572207468616E2030000000 PUSH1 0x44 DUP3 ADD MSTORE PUSH1 0x64 ADD PUSH2 0x59A JUMP JUMPDEST PUSH1 0xCA DUP1 SLOAD SWAP1 DUP2 SWAP1 PUSH1 0x0 PUSH2 0x9E6 DUP4 PUSH2 0x1907 JUMP JUMPDEST SWAP1 SWAP2 SSTORE POP POP PUSH1 0x40 DUP1 MLOAD PUSH1 0xC0 DUP2 ADD DUP3 MSTORE CALLER DUP1 DUP3 MSTORE PUSH1 0x1 PUSH1 0x1 PUSH1 0xA0 SHL SUB DUP9 DUP2 AND PUSH1 0x20 DUP1 DUP6 ADD SWAP2 DUP3 MSTORE DUP12 DUP4 AND DUP6 DUP8 ADD SWAP1 DUP2 MSTORE PUSH1 0x60 DUP7 ADD DUP12 DUP2 MSTORE PUSH1 0x80 DUP8 ADD DUP12 DUP2 MSTORE PUSH1 0xA0 DUP9 ADD DUP12 DUP2 MSTORE PUSH1 0x0 DUP12 DUP2 MSTORE PUSH1 0xC9 SWAP1 SWAP6 MSTORE SWAP9 SWAP1 SWAP4 KECCAK256 SWAP7 MLOAD DUP8 SLOAD SWAP1 DUP7 AND PUSH1 0x1 PUSH1 0x1 PUSH1 0xA0 SHL SUB NOT SWAP2 DUP3 AND OR DUP9 SSTORE SWAP4 MLOAD PUSH1 0x1 DUP9 ADD DUP1 SLOAD SWAP2 DUP8 AND SWAP2 DUP7 AND SWAP2 SWAP1 SWAP2 OR SWAP1 SSTORE SWAP1 MLOAD PUSH1 0x2 DUP8 ADD DUP1 SLOAD SWAP2 SWAP1 SWAP6 AND SWAP4 AND SWAP3 SWAP1 SWAP3 OR SWAP1 SWAP3 SSTORE MLOAD PUSH1 0x3 DUP5 ADD SSTORE MLOAD PUSH1 0x4 DUP4 ADD SSTORE SWAP2 MLOAD PUSH1 0x5 SWAP1 SWAP2 ADD SSTORE PUSH2 0xA99 SWAP1 DUP8 SWAP1 ADDRESS DUP8 DUP8 PUSH2 0x10F3 JUMP JUMPDEST PUSH1 0xCE SLOAD PUSH1 0xCB SLOAD PUSH1 0x40 MLOAD PUSH1 0x0 SWAP3 PUSH1 0x1 PUSH1 0x1 PUSH1 0xA0 SHL SUB AND SWAP2 SWAP1 DUP4 DUP2 DUP2 DUP2 DUP6 DUP8 GAS CALL SWAP3 POP POP POP RETURNDATASIZE DUP1 PUSH1 0x0 DUP2 EQ PUSH2 0xAE8 JUMPI PUSH1 0x40 MLOAD SWAP2 POP PUSH1 0x1F NOT PUSH1 0x3F RETURNDATASIZE ADD AND DUP3 ADD PUSH1 0x40 MSTORE RETURNDATASIZE DUP3 MSTORE RETURNDATASIZE PUSH1 0x0 PUSH1 0x20 DUP5 ADD RETURNDATACOPY PUSH2 0xAED JUMP JUMPDEST PUSH1 0x60 SWAP2 POP JUMPDEST POP POP SWAP1 POP DUP1 PUSH2 0xB0E JUMPI PUSH1 0x40 MLOAD PUSH3 0x461BCD PUSH1 0xE5 SHL DUP2 MSTORE PUSH1 0x4 ADD PUSH2 0x59A SWAP1 PUSH2 0x18B0 JUMP JUMPDEST PUSH1 0x40 DUP1 MLOAD CALLER DUP2 MSTORE PUSH1 0x1 PUSH1 0x1 PUSH1 0xA0 SHL SUB DUP9 AND PUSH1 0x20 DUP3 ADD MSTORE SWAP1 DUP2 ADD DUP7 SWAP1 MSTORE PUSH1 0x60 DUP2 ADD DUP6 SWAP1 MSTORE PUSH1 0x80 DUP2 ADD DUP5 SWAP1 MSTORE PUSH32 0xBE7D9754861A6BB6C9B999FDC3A45F27CC82CDEFDEF14A32F8B581CE12001181 SWAP1 PUSH1 0xA0 ADD PUSH1 0x40 MLOAD DUP1 SWAP2 SUB SWAP1 LOG1 POP POP PUSH2 0xB71 PUSH1 0x1 PUSH1 0x97 SSTORE JUMP JUMPDEST POP POP POP POP POP JUMP JUMPDEST PUSH1 0x0 SLOAD PUSH2 0x100 SWAP1 DIV PUSH1 0xFF AND ISZERO DUP1 DUP1 ISZERO PUSH2 0xB98 JUMPI POP PUSH1 0x0 SLOAD PUSH1 0x1 PUSH1 0xFF SWAP1 SWAP2 AND LT JUMPDEST DUP1 PUSH2 0xBB2 JUMPI POP ADDRESS EXTCODESIZE ISZERO DUP1 ISZERO PUSH2 0xBB2 JUMPI POP PUSH1 0x0 SLOAD PUSH1 0xFF AND PUSH1 0x1 EQ JUMPDEST PUSH2 0xC15 JUMPI PUSH1 0x40 MLOAD PUSH3 0x461BCD PUSH1 0xE5 SHL DUP2 MSTORE PUSH1 0x20 PUSH1 0x4 DUP3 ADD MSTORE PUSH1 0x2E PUSH1 0x24 DUP3 ADD MSTORE PUSH32 0x496E697469616C697A61626C653A20636F6E747261637420697320616C726561 PUSH1 0x44 DUP3 ADD MSTORE PUSH14 0x191E481A5B9A5D1A585B1A5E9959 PUSH1 0x92 SHL PUSH1 0x64 DUP3 ADD MSTORE PUSH1 0x84 ADD PUSH2 0x59A JUMP JUMPDEST PUSH1 0x0 DUP1 SLOAD PUSH1 0xFF NOT AND PUSH1 0x1 OR SWAP1 SSTORE DUP1 ISZERO PUSH2 0xC38 JUMPI PUSH1 0x0 DUP1 SLOAD PUSH2 0xFF00 NOT AND PUSH2 0x100 OR SWAP1 SSTORE JUMPDEST PUSH2 0xC40 PUSH2 0x13C9 JUMP JUMPDEST PUSH2 0xC48 PUSH2 0x13FC JUMP JUMPDEST PUSH2 0xC50 PUSH2 0x142C JUMP JUMPDEST DUP1 ISZERO PUSH2 0x6AC JUMPI PUSH1 0x0 DUP1 SLOAD PUSH2 0xFF00 NOT AND SWAP1 SSTORE PUSH1 0x40 MLOAD PUSH1 0x1 DUP2 MSTORE PUSH32 0x7F26B83FF96E1F2B6A682F133852F6798A09C465DA95921460CEFB3847402498 SWAP1 PUSH1 0x20 ADD PUSH1 0x40 MLOAD DUP1 SWAP2 SUB SWAP1 LOG1 POP JUMP JUMPDEST PUSH2 0xCA0 PUSH2 0xDC5 JUMP JUMPDEST PUSH1 0xCE DUP1 SLOAD PUSH1 0x1 PUSH1 0x1 PUSH1 0xA0 SHL SUB NOT AND PUSH1 0x1 PUSH1 0x1 PUSH1 0xA0 SHL SUB SWAP3 SWAP1 SWAP3 AND SWAP2 SWAP1 SWAP2 OR SWAP1 SSTORE JUMP JUMPDEST PUSH2 0xCCA PUSH2 0xDC5 JUMP JUMPDEST PUSH1 0x1 PUSH1 0x1 PUSH1 0xA0 SHL SUB DUP2 AND PUSH2 0xD2F JUMPI PUSH1 0x40 MLOAD PUSH3 0x461BCD PUSH1 0xE5 SHL DUP2 MSTORE PUSH1 0x20 PUSH1 0x4 DUP3 ADD MSTORE PUSH1 0x26 PUSH1 0x24 DUP3 ADD MSTORE PUSH32 0x4F776E61626C653A206E6577206F776E657220697320746865207A65726F2061 PUSH1 0x44 DUP3 ADD MSTORE PUSH6 0x646472657373 PUSH1 0xD0 SHL PUSH1 0x64 DUP3 ADD MSTORE PUSH1 0x84 ADD PUSH2 0x59A JUMP JUMPDEST PUSH2 0x6AC DUP2 PUSH2 0x1377 JUMP JUMPDEST PUSH2 0xD40 PUSH2 0xDC5 JUMP JUMPDEST PUSH1 0x40 MLOAD PUSH4 0xA9059CBB PUSH1 0xE0 SHL DUP2 MSTORE CALLER PUSH1 0x4 DUP3 ADD MSTORE PUSH1 0x24 DUP2 ADD DUP3 SWAP1 MSTORE PUSH1 0x1 PUSH1 0x1 PUSH1 0xA0 SHL SUB DUP4 AND SWAP1 PUSH4 0xA9059CBB SWAP1 PUSH1 0x44 ADD PUSH1 0x20 PUSH1 0x40 MLOAD DUP1 DUP4 SUB DUP2 PUSH1 0x0 DUP8 DUP1 EXTCODESIZE ISZERO DUP1 ISZERO PUSH2 0xD88 JUMPI PUSH1 0x0 DUP1 REVERT JUMPDEST POP GAS CALL ISZERO DUP1 ISZERO PUSH2 0xD9C JUMPI RETURNDATASIZE PUSH1 0x0 DUP1 RETURNDATACOPY RETURNDATASIZE PUSH1 0x0 REVERT JUMPDEST POP POP POP POP PUSH1 0x40 MLOAD RETURNDATASIZE PUSH1 0x1F NOT PUSH1 0x1F DUP3 ADD AND DUP3 ADD DUP1 PUSH1 0x40 MSTORE POP DUP2 ADD SWAP1 PUSH2 0xDC0 SWAP2 SWAP1 PUSH2 0x1922 JUMP JUMPDEST POP POP POP JUMP JUMPDEST PUSH1 0x33 SLOAD PUSH1 0x1 PUSH1 0x1 PUSH1 0xA0 SHL SUB AND CALLER EQ PUSH2 0x92B JUMPI PUSH1 0x40 MLOAD PUSH3 0x461BCD PUSH1 0xE5 SHL DUP2 MSTORE PUSH1 0x20 PUSH1 0x4 DUP3 ADD DUP2 SWAP1 MSTORE PUSH1 0x24 DUP3 ADD MSTORE PUSH32 0x4F776E61626C653A2063616C6C6572206973206E6F7420746865206F776E6572 PUSH1 0x44 DUP3 ADD MSTORE PUSH1 0x64 ADD PUSH2 0x59A JUMP JUMPDEST PUSH1 0x65 SLOAD PUSH1 0xFF AND ISZERO PUSH2 0x92B JUMPI PUSH1 0x40 MLOAD PUSH3 0x461BCD PUSH1 0xE5 SHL DUP2 MSTORE PUSH1 0x20 PUSH1 0x4 DUP3 ADD MSTORE PUSH1 0x10 PUSH1 0x24 DUP3 ADD MSTORE PUSH16 0x14185D5CD8589B194E881C185D5CD959 PUSH1 0x82 SHL PUSH1 0x44 DUP3 ADD MSTORE PUSH1 0x64 ADD PUSH2 0x59A JUMP JUMPDEST PUSH1 0x2 PUSH1 0x97 SLOAD EQ ISZERO PUSH2 0xEB8 JUMPI PUSH1 0x40 MLOAD PUSH3 0x461BCD PUSH1 0xE5 SHL DUP2 MSTORE PUSH1 0x20 PUSH1 0x4 DUP3 ADD MSTORE PUSH1 0x1F PUSH1 0x24 DUP3 ADD MSTORE PUSH32 0x5265656E7472616E637947756172643A207265656E7472616E742063616C6C00 PUSH1 0x44 DUP3 ADD MSTORE PUSH1 0x64 ADD PUSH2 0x59A JUMP JUMPDEST PUSH1 0x2 PUSH1 0x97 SSTORE JUMP JUMPDEST PUSH1 0x0 PUSH1 0x1 PUSH1 0x1 PUSH1 0xA0 SHL SUB DUP6 AND PUSH2 0x1095 JUMPI DUP2 CALLVALUE LT ISZERO PUSH2 0xF17 JUMPI PUSH1 0x40 MLOAD PUSH3 0x461BCD PUSH1 0xE5 SHL DUP2 MSTORE PUSH1 0x20 PUSH1 0x4 DUP3 ADD MSTORE PUSH1 0x15 PUSH1 0x24 DUP3 ADD MSTORE PUSH21 0x139BDD08195B9BDD59DA08115D1A195C881CD95B9D PUSH1 0x5A SHL PUSH1 0x44 DUP3 ADD MSTORE PUSH1 0x64 ADD PUSH2 0x59A JUMP JUMPDEST PUSH1 0x0 PUSH1 0x64 PUSH1 0xCD SLOAD DUP5 PUSH2 0xF29 SWAP2 SWAP1 PUSH2 0x1944 JUMP JUMPDEST PUSH2 0xF33 SWAP2 SWAP1 PUSH2 0x1963 JUMP JUMPDEST SWAP1 POP PUSH1 0x0 PUSH2 0xF41 DUP3 DUP6 PUSH2 0x1985 JUMP JUMPDEST PUSH1 0xCE SLOAD PUSH1 0x40 MLOAD SWAP2 SWAP3 POP PUSH1 0x0 SWAP2 PUSH1 0x1 PUSH1 0x1 PUSH1 0xA0 SHL SUB SWAP1 SWAP2 AND SWAP1 DUP5 SWAP1 DUP4 DUP2 DUP2 DUP2 DUP6 DUP8 GAS CALL SWAP3 POP POP POP RETURNDATASIZE DUP1 PUSH1 0x0 DUP2 EQ PUSH2 0xF93 JUMPI PUSH1 0x40 MLOAD SWAP2 POP PUSH1 0x1F NOT PUSH1 0x3F RETURNDATASIZE ADD AND DUP3 ADD PUSH1 0x40 MSTORE RETURNDATASIZE DUP3 MSTORE RETURNDATASIZE PUSH1 0x0 PUSH1 0x20 DUP5 ADD RETURNDATACOPY PUSH2 0xF98 JUMP JUMPDEST PUSH1 0x60 SWAP2 POP JUMPDEST POP POP SWAP1 POP DUP1 PUSH2 0xFE9 JUMPI PUSH1 0x40 MLOAD PUSH3 0x461BCD PUSH1 0xE5 SHL DUP2 MSTORE PUSH1 0x20 PUSH1 0x4 DUP3 ADD MSTORE PUSH1 0x1C PUSH1 0x24 DUP3 ADD MSTORE PUSH32 0x4661696C656420746F2073656E6420457468657220666F722066656500000000 PUSH1 0x44 DUP3 ADD MSTORE PUSH1 0x64 ADD PUSH2 0x59A JUMP JUMPDEST PUSH1 0x0 DUP7 PUSH1 0x1 PUSH1 0x1 PUSH1 0xA0 SHL SUB AND DUP4 PUSH1 0x40 MLOAD PUSH1 0x0 PUSH1 0x40 MLOAD DUP1 DUP4 SUB DUP2 DUP6 DUP8 GAS CALL SWAP3 POP POP POP RETURNDATASIZE DUP1 PUSH1 0x0 DUP2 EQ PUSH2 0x1036 JUMPI PUSH1 0x40 MLOAD SWAP2 POP PUSH1 0x1F NOT PUSH1 0x3F RETURNDATASIZE ADD AND DUP3 ADD PUSH1 0x40 MSTORE RETURNDATASIZE DUP3 MSTORE RETURNDATASIZE PUSH1 0x0 PUSH1 0x20 DUP5 ADD RETURNDATACOPY PUSH2 0x103B JUMP JUMPDEST PUSH1 0x60 SWAP2 POP JUMPDEST POP POP SWAP1 POP DUP1 PUSH2 0x108C JUMPI PUSH1 0x40 MLOAD PUSH3 0x461BCD PUSH1 0xE5 SHL DUP2 MSTORE PUSH1 0x20 PUSH1 0x4 DUP3 ADD MSTORE PUSH1 0x1E PUSH1 0x24 DUP3 ADD MSTORE PUSH32 0x4661696C656420746F2073656E6420457468657220746F2073656C6C65720000 PUSH1 0x44 DUP3 ADD MSTORE PUSH1 0x64 ADD PUSH2 0x59A JUMP JUMPDEST POP POP POP POP PUSH2 0x10EB JUMP JUMPDEST PUSH1 0x0 PUSH1 0x64 PUSH1 0xCD SLOAD DUP5 PUSH2 0x10A7 SWAP2 SWAP1 PUSH2 0x1944 JUMP JUMPDEST PUSH2 0x10B1 SWAP2 SWAP1 PUSH2 0x1963 JUMP JUMPDEST SWAP1 POP PUSH1 0x0 PUSH2 0x10BF DUP3 DUP6 PUSH2 0x1985 JUMP JUMPDEST PUSH1 0xCE SLOAD SWAP1 SWAP2 POP PUSH2 0x10DC SWAP1 DUP9 SWAP1 DUP9 SWAP1 PUSH1 0x1 PUSH1 0x1 PUSH1 0xA0 SHL SUB AND DUP6 PUSH2 0x1453 JUMP JUMPDEST PUSH2 0x10E8 DUP8 DUP8 DUP8 DUP5 PUSH2 0x1453 JUMP JUMPDEST POP POP JUMPDEST POP SWAP4 SWAP3 POP POP POP JUMP JUMPDEST PUSH1 0x0 DUP2 GT PUSH2 0x1130 JUMPI PUSH1 0x40 MLOAD PUSH3 0x461BCD PUSH1 0xE5 SHL DUP2 MSTORE PUSH1 0x20 PUSH1 0x4 DUP3 ADD MSTORE PUSH1 0xA PUSH1 0x24 DUP3 ADD MSTORE PUSH10 0x416D6F756E74203E203 PUSH1 0xB4 SHL PUSH1 0x44 DUP3 ADD MSTORE PUSH1 0x64 ADD PUSH2 0x59A JUMP JUMPDEST PUSH1 0x40 MLOAD PUSH4 0x1FFC9A7 PUSH1 0xE0 SHL DUP2 MSTORE PUSH4 0x80AC58CD PUSH1 0xE0 SHL PUSH1 0x4 DUP3 ADD MSTORE PUSH1 0x1 PUSH1 0x1 PUSH1 0xA0 SHL SUB DUP7 AND SWAP1 PUSH4 0x1FFC9A7 SWAP1 PUSH1 0x24 ADD PUSH1 0x20 PUSH1 0x40 MLOAD DUP1 DUP4 SUB DUP2 DUP7 DUP1 EXTCODESIZE ISZERO DUP1 ISZERO PUSH2 0x1176 JUMPI PUSH1 0x0 DUP1 REVERT JUMPDEST POP GAS STATICCALL ISZERO DUP1 ISZERO PUSH2 0x118A JUMPI RETURNDATASIZE PUSH1 0x0 DUP1 RETURNDATACOPY RETURNDATASIZE PUSH1 0x0 REVERT JUMPDEST POP POP POP POP PUSH1 0x40 MLOAD RETURNDATASIZE PUSH1 0x1F NOT PUSH1 0x1F DUP3 ADD AND DUP3 ADD DUP1 PUSH1 0x40 MSTORE POP DUP2 ADD SWAP1 PUSH2 0x11AE SWAP2 SWAP1 PUSH2 0x1922 JUMP JUMPDEST ISZERO PUSH2 0x1267 JUMPI DUP1 PUSH1 0x1 EQ PUSH2 0x11F8 JUMPI PUSH1 0x40 MLOAD PUSH3 0x461BCD PUSH1 0xE5 SHL DUP2 MSTORE PUSH1 0x20 PUSH1 0x4 DUP3 ADD MSTORE PUSH1 0x12 PUSH1 0x24 DUP3 ADD MSTORE PUSH18 0x416D6F756E7420657263373231203D3D2031 PUSH1 0x70 SHL PUSH1 0x44 DUP3 ADD MSTORE PUSH1 0x64 ADD PUSH2 0x59A JUMP JUMPDEST PUSH1 0x40 MLOAD PUSH4 0x21421707 PUSH1 0xE1 SHL DUP2 MSTORE PUSH1 0x1 PUSH1 0x1 PUSH1 0xA0 SHL SUB DUP6 DUP2 AND PUSH1 0x4 DUP4 ADD MSTORE DUP5 DUP2 AND PUSH1 0x24 DUP4 ADD MSTORE PUSH1 0x44 DUP3 ADD DUP5 SWAP1 MSTORE DUP7 AND SWAP1 PUSH4 0x42842E0E SWAP1 PUSH1 0x64 ADD PUSH1 0x0 PUSH1 0x40 MLOAD DUP1 DUP4 SUB DUP2 PUSH1 0x0 DUP8 DUP1 EXTCODESIZE ISZERO DUP1 ISZERO PUSH2 0x124A JUMPI PUSH1 0x0 DUP1 REVERT JUMPDEST POP GAS CALL ISZERO DUP1 ISZERO PUSH2 0x125E JUMPI RETURNDATASIZE PUSH1 0x0 DUP1 RETURNDATACOPY RETURNDATASIZE PUSH1 0x0 REVERT JUMPDEST POP POP POP POP PUSH2 0xB71 JUMP JUMPDEST PUSH1 0x40 MLOAD PUSH4 0x1FFC9A7 PUSH1 0xE0 SHL DUP2 MSTORE PUSH4 0x6CDB3D13 PUSH1 0xE1 SHL PUSH1 0x4 DUP3 ADD MSTORE PUSH1 0x1 PUSH1 0x1 PUSH1 0xA0 SHL SUB DUP7 AND SWAP1 PUSH4 0x1FFC9A7 SWAP1 PUSH1 0x24 ADD PUSH1 0x20 PUSH1 0x40 MLOAD DUP1 DUP4 SUB DUP2 DUP7 DUP1 EXTCODESIZE ISZERO DUP1 ISZERO PUSH2 0x12AD JUMPI PUSH1 0x0 DUP1 REVERT JUMPDEST POP GAS STATICCALL ISZERO DUP1 ISZERO PUSH2 0x12C1 JUMPI RETURNDATASIZE PUSH1 0x0 DUP1 RETURNDATACOPY RETURNDATASIZE PUSH1 0x0 REVERT JUMPDEST POP POP POP POP PUSH1 0x40 MLOAD RETURNDATASIZE PUSH1 0x1F NOT PUSH1 0x1F DUP3 ADD AND DUP3 ADD DUP1 PUSH1 0x40 MSTORE POP DUP2 ADD SWAP1 PUSH2 0x12E5 SWAP2 SWAP1 PUSH2 0x1922 JUMP JUMPDEST ISZERO PUSH2 0xB71 JUMPI PUSH1 0x40 MLOAD PUSH4 0x79212195 PUSH1 0xE1 SHL DUP2 MSTORE PUSH1 0x1 PUSH1 0x1 PUSH1 0xA0 SHL SUB DUP6 DUP2 AND PUSH1 0x4 DUP4 ADD MSTORE DUP5 DUP2 AND PUSH1 0x24 DUP4 ADD MSTORE PUSH1 0x44 DUP3 ADD DUP5 SWAP1 MSTORE PUSH1 0x64 DUP3 ADD DUP4 SWAP1 MSTORE PUSH1 0xA0 PUSH1 0x84 DUP4 ADD MSTORE PUSH1 0x0 PUSH1 0xA4 DUP4 ADD MSTORE DUP7 AND SWAP1 PUSH4 0xF242432A SWAP1 PUSH1 0xC4 ADD PUSH1 0x0 PUSH1 0x40 MLOAD DUP1 DUP4 SUB DUP2 PUSH1 0x0 DUP8 DUP1 EXTCODESIZE ISZERO DUP1 ISZERO PUSH2 0x1351 JUMPI PUSH1 0x0 DUP1 REVERT JUMPDEST POP GAS CALL ISZERO DUP1 ISZERO PUSH2 0x1365 JUMPI RETURNDATASIZE PUSH1 0x0 DUP1 RETURNDATACOPY RETURNDATASIZE PUSH1 0x0 REVERT JUMPDEST POP POP POP POP POP POP POP POP POP JUMP JUMPDEST PUSH1 0x1 PUSH1 0x97 SSTORE JUMP JUMPDEST PUSH1 0x33 DUP1 SLOAD PUSH1 0x1 PUSH1 0x1 PUSH1 0xA0 SHL SUB DUP4 DUP2 AND PUSH1 0x1 PUSH1 0x1 PUSH1 0xA0 SHL SUB NOT DUP4 AND DUP2 OR SWAP1 SWAP4 SSTORE PUSH1 0x40 MLOAD SWAP2 AND SWAP2 SWAP1 DUP3 SWAP1 PUSH32 0x8BE0079C531659141344CD1FD0A4F28419497F9722A3DAAFE3B4186F6B6457E0 SWAP1 PUSH1 0x0 SWAP1 LOG3 POP POP JUMP JUMPDEST PUSH1 0x0 SLOAD PUSH2 0x100 SWAP1 DIV PUSH1 0xFF AND PUSH2 0x13F0 JUMPI PUSH1 0x40 MLOAD PUSH3 0x461BCD PUSH1 0xE5 SHL DUP2 MSTORE PUSH1 0x4 ADD PUSH2 0x59A SWAP1 PUSH2 0x199C JUMP JUMPDEST PUSH1 0x65 DUP1 SLOAD PUSH1 0xFF NOT AND SWAP1 SSTORE JUMP JUMPDEST PUSH1 0x0 SLOAD PUSH2 0x100 SWAP1 DIV PUSH1 0xFF AND PUSH2 0x1423 JUMPI PUSH1 0x40 MLOAD PUSH3 0x461BCD PUSH1 0xE5 SHL DUP2 MSTORE PUSH1 0x4 ADD PUSH2 0x59A SWAP1 PUSH2 0x199C JUMP JUMPDEST PUSH2 0x92B CALLER PUSH2 0x1377 JUMP JUMPDEST PUSH1 0x0 SLOAD PUSH2 0x100 SWAP1 DIV PUSH1 0xFF AND PUSH2 0x1370 JUMPI PUSH1 0x40 MLOAD PUSH3 0x461BCD PUSH1 0xE5 SHL DUP2 MSTORE PUSH1 0x4 ADD PUSH2 0x59A SWAP1 PUSH2 0x199C JUMP JUMPDEST PUSH1 0x0 DUP2 GT PUSH2 0x1490 JUMPI PUSH1 0x40 MLOAD PUSH3 0x461BCD PUSH1 0xE5 SHL DUP2 MSTORE PUSH1 0x20 PUSH1 0x4 DUP3 ADD MSTORE PUSH1 0xA PUSH1 0x24 DUP3 ADD MSTORE PUSH10 0x416D6F756E74203E203 PUSH1 0xB4 SHL PUSH1 0x44 DUP3 ADD MSTORE PUSH1 0x64 ADD PUSH2 0x59A JUMP JUMPDEST PUSH1 0x40 MLOAD PUSH4 0x23B872DD PUSH1 0xE0 SHL DUP2 MSTORE PUSH1 0x1 PUSH1 0x1 PUSH1 0xA0 SHL SUB DUP5 DUP2 AND PUSH1 0x4 DUP4 ADD MSTORE DUP4 DUP2 AND PUSH1 0x24 DUP4 ADD MSTORE PUSH1 0x44 DUP3 ADD DUP4 SWAP1 MSTORE PUSH1 0x0 SWAP2 SWAP1 DUP7 AND SWAP1 PUSH4 0x23B872DD SWAP1 PUSH1 0x64 ADD PUSH1 0x20 PUSH1 0x40 MLOAD DUP1 DUP4 SUB DUP2 PUSH1 0x0 DUP8 DUP1 EXTCODESIZE ISZERO DUP1 ISZERO PUSH2 0x14E6 JUMPI PUSH1 0x0 DUP1 REVERT JUMPDEST POP GAS CALL ISZERO DUP1 ISZERO PUSH2 0x14FA JUMPI RETURNDATASIZE PUSH1 0x0 DUP1 RETURNDATACOPY RETURNDATASIZE PUSH1 0x0 REVERT JUMPDEST POP POP POP POP PUSH1 0x40 MLOAD RETURNDATASIZE PUSH1 0x1F NOT PUSH1 0x1F DUP3 ADD AND DUP3 ADD DUP1 PUSH1 0x40 MSTORE POP DUP2 ADD SWAP1 PUSH2 0x151E SWAP2 SWAP1 PUSH2 0x1922 JUMP JUMPDEST SWAP1 POP DUP1 PUSH2 0xB71 JUMPI PUSH1 0x40 MLOAD PUSH3 0x461BCD PUSH1 0xE5 SHL DUP2 MSTORE PUSH1 0x20 PUSH1 0x4 DUP3 ADD MSTORE PUSH1 0x16 PUSH1 0x24 DUP3 ADD MSTORE PUSH22 0x115490CB4C8C081D1C985B9CD9995C8819985A5B1959 PUSH1 0x52 SHL PUSH1 0x44 DUP3 ADD MSTORE PUSH1 0x64 ADD PUSH2 0x59A JUMP JUMPDEST PUSH1 0x0 PUSH1 0x20 DUP3 DUP5 SUB SLT ISZERO PUSH2 0x1578 JUMPI PUSH1 0x0 DUP1 REVERT JUMPDEST DUP2 CALLDATALOAD PUSH1 0x1 PUSH1 0x1 PUSH1 0xE0 SHL SUB NOT DUP2 AND DUP2 EQ PUSH2 0x1590 JUMPI PUSH1 0x0 DUP1 REVERT JUMPDEST SWAP4 SWAP3 POP POP POP JUMP JUMPDEST PUSH1 0x0 PUSH1 0x20 DUP3 DUP5 SUB SLT ISZERO PUSH2 0x15A9 JUMPI PUSH1 0x0 DUP1 REVERT JUMPDEST POP CALLDATALOAD SWAP2 SWAP1 POP JUMP JUMPDEST DUP1 CALLDATALOAD PUSH1 0x1 PUSH1 0x1 PUSH1 0xA0 SHL SUB DUP2 AND DUP2 EQ PUSH2 0x15C7 JUMPI PUSH1 0x0 DUP1 REVERT JUMPDEST SWAP2 SWAP1 POP JUMP JUMPDEST PUSH1 0x0 DUP1 DUP4 PUSH1 0x1F DUP5 ADD SLT PUSH2 0x15DE JUMPI PUSH1 0x0 DUP1 REVERT JUMPDEST POP DUP2 CALLDATALOAD PUSH8 0xFFFFFFFFFFFFFFFF DUP2 GT ISZERO PUSH2 0x15F6 JUMPI PUSH1 0x0 DUP1 REVERT JUMPDEST PUSH1 0x20 DUP4 ADD SWAP2 POP DUP4 PUSH1 0x20 DUP3 DUP6 ADD ADD GT ISZERO PUSH2 0x160E JUMPI PUSH1 0x0 DUP1 REVERT JUMPDEST SWAP3 POP SWAP3 SWAP1 POP JUMP JUMPDEST PUSH1 0x0 DUP1 PUSH1 0x0 DUP1 PUSH1 0x0 PUSH1 0x80 DUP7 DUP9 SUB SLT ISZERO PUSH2 0x162D JUMPI PUSH1 0x0 DUP1 REVERT JUMPDEST PUSH2 0x1636 DUP7 PUSH2 0x15B0 JUMP JUMPDEST SWAP5 POP PUSH2 0x1644 PUSH1 0x20 DUP8 ADD PUSH2 0x15B0 JUMP JUMPDEST SWAP4 POP PUSH1 0x40 DUP7 ADD CALLDATALOAD SWAP3 POP PUSH1 0x60 DUP7 ADD CALLDATALOAD PUSH8 0xFFFFFFFFFFFFFFFF DUP2 GT ISZERO PUSH2 0x1667 JUMPI PUSH1 0x0 DUP1 REVERT JUMPDEST PUSH2 0x1673 DUP9 DUP3 DUP10 ADD PUSH2 0x15CC JUMP JUMPDEST SWAP7 SWAP10 SWAP6 SWAP9 POP SWAP4 SWAP7 POP SWAP3 SWAP5 SWAP4 SWAP3 POP POP POP JUMP JUMPDEST PUSH1 0x0 DUP1 PUSH1 0x40 DUP4 DUP6 SUB SLT ISZERO PUSH2 0x1697 JUMPI PUSH1 0x0 DUP1 REVERT JUMPDEST POP POP DUP1 CALLDATALOAD SWAP3 PUSH1 0x20 SWAP1 SWAP2 ADD CALLDATALOAD SWAP2 POP JUMP JUMPDEST PUSH1 0x0 DUP1 PUSH1 0x0 DUP1 PUSH1 0x0 PUSH1 0xA0 DUP7 DUP9 SUB SLT ISZERO PUSH2 0x16BE JUMPI PUSH1 0x0 DUP1 REVERT JUMPDEST PUSH2 0x16C7 DUP7 PUSH2 0x15B0 JUMP JUMPDEST SWAP5 POP PUSH2 0x16D5 PUSH1 0x20 DUP8 ADD PUSH2 0x15B0 JUMP JUMPDEST SWAP5 SWAP8 SWAP5 SWAP7 POP POP POP POP PUSH1 0x40 DUP4 ADD CALLDATALOAD SWAP3 PUSH1 0x60 DUP2 ADD CALLDATALOAD SWAP3 PUSH1 0x80 SWAP1 SWAP2 ADD CALLDATALOAD SWAP2 POP JUMP JUMPDEST PUSH1 0x0 DUP1 DUP4 PUSH1 0x1F DUP5 ADD SLT PUSH2 0x1705 JUMPI PUSH1 0x0 DUP1 REVERT JUMPDEST POP DUP2 CALLDATALOAD PUSH8 0xFFFFFFFFFFFFFFFF DUP2 GT ISZERO PUSH2 0x171D JUMPI PUSH1 0x0 DUP1 REVERT JUMPDEST PUSH1 0x20 DUP4 ADD SWAP2 POP DUP4 PUSH1 0x20 DUP3 PUSH1 0x5 SHL DUP6 ADD ADD GT ISZERO PUSH2 0x160E JUMPI PUSH1 0x0 DUP1 REVERT JUMPDEST PUSH1 0x0 DUP1 PUSH1 0x0 DUP1 PUSH1 0x0 DUP1 PUSH1 0x0 DUP1 PUSH1 0xA0 DUP10 DUP12 SUB SLT ISZERO PUSH2 0x1754 JUMPI PUSH1 0x0 DUP1 REVERT JUMPDEST PUSH2 0x175D DUP10 PUSH2 0x15B0 JUMP JUMPDEST SWAP8 POP PUSH2 0x176B PUSH1 0x20 DUP11 ADD PUSH2 0x15B0 JUMP JUMPDEST SWAP7 POP PUSH1 0x40 DUP10 ADD CALLDATALOAD PUSH8 0xFFFFFFFFFFFFFFFF DUP1 DUP3 GT ISZERO PUSH2 0x1788 JUMPI PUSH1 0x0 DUP1 REVERT JUMPDEST PUSH2 0x1794 DUP13 DUP4 DUP14 ADD PUSH2 0x16F3 JUMP JUMPDEST SWAP1 SWAP9 POP SWAP7 POP PUSH1 0x60 DUP12 ADD CALLDATALOAD SWAP2 POP DUP1 DUP3 GT ISZERO PUSH2 0x17AD JUMPI PUSH1 0x0 DUP1 REVERT JUMPDEST PUSH2 0x17B9 DUP13 DUP4 DUP14 ADD PUSH2 0x16F3 JUMP JUMPDEST SWAP1 SWAP7 POP SWAP5 POP PUSH1 0x80 DUP12 ADD CALLDATALOAD SWAP2 POP DUP1 DUP3 GT ISZERO PUSH2 0x17D2 JUMPI PUSH1 0x0 DUP1 REVERT JUMPDEST POP PUSH2 0x17DF DUP12 DUP3 DUP13 ADD PUSH2 0x15CC JUMP JUMPDEST SWAP10 SWAP13 SWAP9 SWAP12 POP SWAP7 SWAP10 POP SWAP5 SWAP8 SWAP4 SWAP7 SWAP3 SWAP6 SWAP5 POP POP POP JUMP JUMPDEST PUSH1 0x0 PUSH1 0x20 DUP3 DUP5 SUB SLT ISZERO PUSH2 0x1805 JUMPI PUSH1 0x0 DUP1 REVERT JUMPDEST PUSH2 0x1590 DUP3 PUSH2 0x15B0 JUMP JUMPDEST PUSH1 0x0 DUP1 PUSH1 0x0 DUP1 PUSH1 0x0 DUP1 PUSH1 0xA0 DUP8 DUP10 SUB SLT ISZERO PUSH2 0x1827 JUMPI PUSH1 0x0 DUP1 REVERT JUMPDEST PUSH2 0x1830 DUP8 PUSH2 0x15B0 JUMP JUMPDEST SWAP6 POP PUSH2 0x183E PUSH1 0x20 DUP9 ADD PUSH2 0x15B0 JUMP JUMPDEST SWAP5 POP PUSH1 0x40 DUP8 ADD CALLDATALOAD SWAP4 POP PUSH1 0x60 DUP8 ADD CALLDATALOAD SWAP3 POP PUSH1 0x80 DUP8 ADD CALLDATALOAD PUSH8 0xFFFFFFFFFFFFFFFF DUP2 GT ISZERO PUSH2 0x1868 JUMPI PUSH1 0x0 DUP1 REVERT JUMPDEST PUSH2 0x1874 DUP10 DUP3 DUP11 ADD PUSH2 0x15CC JUMP JUMPDEST SWAP8 SWAP11 SWAP7 SWAP10 POP SWAP5 SWAP8 POP SWAP3 SWAP6 SWAP4 SWAP5 SWAP3 POP POP POP JUMP JUMPDEST PUSH1 0x0 DUP1 PUSH1 0x40 DUP4 DUP6 SUB SLT ISZERO PUSH2 0x1899 JUMPI PUSH1 0x0 DUP1 REVERT JUMPDEST PUSH2 0x18A2 DUP4 PUSH2 0x15B0 JUMP JUMPDEST SWAP5 PUSH1 0x20 SWAP4 SWAP1 SWAP4 ADD CALLDATALOAD SWAP4 POP POP POP JUMP JUMPDEST PUSH1 0x20 DUP1 DUP3 MSTORE PUSH1 0x21 SWAP1 DUP3 ADD MSTORE PUSH32 0x4661696C656420746F2073656E6420457468657220746F20726563697069656E PUSH1 0x40 DUP3 ADD MSTORE PUSH1 0x1D PUSH1 0xFA SHL PUSH1 0x60 DUP3 ADD MSTORE PUSH1 0x80 ADD SWAP1 JUMP JUMPDEST PUSH4 0x4E487B71 PUSH1 0xE0 SHL PUSH1 0x0 MSTORE PUSH1 0x11 PUSH1 0x4 MSTORE PUSH1 0x24 PUSH1 0x0 REVERT JUMPDEST PUSH1 0x0 PUSH1 0x0 NOT DUP3 EQ ISZERO PUSH2 0x191B JUMPI PUSH2 0x191B PUSH2 0x18F1 JUMP JUMPDEST POP PUSH1 0x1 ADD SWAP1 JUMP JUMPDEST PUSH1 0x0 PUSH1 0x20 DUP3 DUP5 SUB SLT ISZERO PUSH2 0x1934 JUMPI PUSH1 0x0 DUP1 REVERT JUMPDEST DUP2 MLOAD DUP1 ISZERO ISZERO DUP2 EQ PUSH2 0x1590 JUMPI PUSH1 0x0 DUP1 REVERT JUMPDEST PUSH1 0x0 DUP2 PUSH1 0x0 NOT DIV DUP4 GT DUP3 ISZERO ISZERO AND ISZERO PUSH2 0x195E JUMPI PUSH2 0x195E PUSH2 0x18F1 JUMP JUMPDEST POP MUL SWAP1 JUMP JUMPDEST PUSH1 0x0 DUP3 PUSH2 0x1980 JUMPI PUSH4 0x4E487B71 PUSH1 0xE0 SHL PUSH1 0x0 MSTORE PUSH1 0x12 PUSH1 0x4 MSTORE PUSH1 0x24 PUSH1 0x0 REVERT JUMPDEST POP DIV SWAP1 JUMP JUMPDEST PUSH1 0x0 DUP3 DUP3 LT ISZERO PUSH2 0x1997 JUMPI PUSH2 0x1997 PUSH2 0x18F1 JUMP JUMPDEST POP SUB SWAP1 JUMP JUMPDEST PUSH1 0x20 DUP1 DUP3 MSTORE PUSH1 0x2B SWAP1 DUP3 ADD MSTORE PUSH32 0x496E697469616C697A61626C653A20636F6E7472616374206973206E6F742069 PUSH1 0x40 DUP3 ADD MSTORE PUSH11 0x6E697469616C697A696E67 PUSH1 0xA8 SHL PUSH1 0x60 DUP3 ADD MSTORE PUSH1 0x80 ADD SWAP1 JUMP INVALID LOG2 PUSH5 0x6970667358 0x22 SLT KECCAK256 LOG4 PUSH14 0xB5CCCB00BB32E9561DB2A30D4B3D 0x26 CALLDATALOAD LOG1 0x4C 0xAF CREATE 0x2D SELFDESTRUCT 0xEA 0xAE 0xE0 BALANCE 0xB7 RETURNDATASIZE 0xCA 0xB9 PUSH5 0x736F6C6343 STOP ADDMOD MULMOD STOP CALLER "},"methodIdentifiers":{"ERC1155_INTERFACE_ID()":"2ca069a5","ERC721_INTERFACE_ID()":"59f4a907","feeRecipient()":"46904840","initialize()":"8129fc1c","listing(address,address,uint256,uint256,uint256)":"7176ba2f","listingFee()":"6a1b7ecc","listings(uint256)":"de74e57b","nextListingId()":"aaccf1ec","onERC1155BatchReceived(address,address,uint256[],uint256[],bytes)":"bc197c81","onERC1155Received(address,address,uint256,uint256,bytes)":"f23a6e61","onERC721Received(address,address,uint256,bytes)":"150b7a02","owner()":"8da5cb5b","paused()":"5c975abb","percentFee()":"4c1a4115","purchaseNFT(uint256)":"150bde03","renounceOwnership()":"715018a6","rescueStuck(address,uint256)":"fe7f0c5c","setFee(uint256,uint256)":"52f7c988","setFeeRecipient(address)":"e74b981b","setPercentFee(uint256)":"05501023","supportsInterface(bytes4)":"01ffc9a7","transferOwnership(address)":"f2fde38b","unListing(uint256)":"6a2a4544","unListingFee()":"3efae5f8"}},"storageLayout":{"storage":[{"astId":150,"contract":"contracts/Maketplace.sol:Maketplace","label":"_initialized","offset":0,"slot":"0","type":"t_uint8"},{"astId":153,"contract":"contracts/Maketplace.sol:Maketplace","label":"_initializing","offset":1,"slot":"0","type":"t_bool"},{"astId":1212,"contract":"contracts/Maketplace.sol:Maketplace","label":"__gap","offset":0,"slot":"1","type":"t_array(t_uint256)50_storage"},{"astId":10,"contract":"contracts/Maketplace.sol:Maketplace","label":"_owner","offset":0,"slot":"51","type":"t_address"},{"astId":130,"contract":"contracts/Maketplace.sol:Maketplace","label":"__gap","offset":0,"slot":"52","type":"t_array(t_uint256)49_storage"},{"astId":333,"contract":"contracts/Maketplace.sol:Maketplace","label":"_paused","offset":0,"slot":"101","type":"t_bool"},{"astId":438,"contract":"contracts/Maketplace.sol:Maketplace","label":"__gap","offset":0,"slot":"102","type":"t_array(t_uint256)49_storage"},{"astId":453,"contract":"contracts/Maketplace.sol:Maketplace","label":"_status","offset":0,"slot":"151","type":"t_uint256"},{"astId":511,"contract":"contracts/Maketplace.sol:Maketplace","label":"__gap","offset":0,"slot":"152","type":"t_array(t_uint256)49_storage"},{"astId":1309,"contract":"contracts/Maketplace.sol:Maketplace","label":"listings","offset":0,"slot":"201","type":"t_mapping(t_uint256,t_struct(Listing)1304_storage)"},{"astId":1311,"contract":"contracts/Maketplace.sol:Maketplace","label":"nextListingId","offset":0,"slot":"202","type":"t_uint256"},{"astId":1313,"contract":"contracts/Maketplace.sol:Maketplace","label":"listingFee","offset":0,"slot":"203","type":"t_uint256"},{"astId":1315,"contract":"contracts/Maketplace.sol:Maketplace","label":"unListingFee","offset":0,"slot":"204","type":"t_uint256"},{"astId":1317,"contract":"contracts/Maketplace.sol:Maketplace","label":"percentFee","offset":0,"slot":"205","type":"t_uint256"},{"astId":1319,"contract":"contracts/Maketplace.sol:Maketplace","label":"feeRecipient","offset":0,"slot":"206","type":"t_address_payable"}],"types":{"t_address":{"encoding":"inplace","label":"address","numberOfBytes":"20"},"t_address_payable":{"encoding":"inplace","label":"address payable","numberOfBytes":"20"},"t_array(t_uint256)49_storage":{"base":"t_uint256","encoding":"inplace","label":"uint256[49]","numberOfBytes":"1568"},"t_array(t_uint256)50_storage":{"base":"t_uint256","encoding":"inplace","label":"uint256[50]","numberOfBytes":"1600"},"t_bool":{"encoding":"inplace","label":"bool","numberOfBytes":"1"},"t_mapping(t_uint256,t_struct(Listing)1304_storage)":{"encoding":"mapping","key":"t_uint256","label":"mapping(uint256 => struct Maketplace.Listing)","numberOfBytes":"32","value":"t_struct(Listing)1304_storage"},"t_struct(Listing)1304_storage":{"encoding":"inplace","label":"struct Maketplace.Listing","members":[{"astId":1293,"contract":"contracts/Maketplace.sol:Maketplace","label":"seller","offset":0,"slot":"0","type":"t_address"},{"astId":1295,"contract":"contracts/Maketplace.sol:Maketplace","label":"paymentToken","offset":0,"slot":"1","type":"t_address"},{"astId":1297,"contract":"contracts/Maketplace.sol:Maketplace","label":"nft","offset":0,"slot":"2","type":"t_address"},{"astId":1299,"contract":"contracts/Maketplace.sol:Maketplace","label":"tokenId","offset":0,"slot":"3","type":"t_uint256"},{"astId":1301,"contract":"contracts/Maketplace.sol:Maketplace","label":"amount","offset":0,"slot":"4","type":"t_uint256"},{"astId":1303,"contract":"contracts/Maketplace.sol:Maketplace","label":"price","offset":0,"slot":"5","type":"t_uint256"}],"numberOfBytes":"192"},"t_uint256":{"encoding":"inplace","label":"uint256","numberOfBytes":"32"},"t_uint8":{"encoding":"inplace","label":"uint8","numberOfBytes":"1"}}}}}}