{"contracts/Maketplace.sol":{"Marketplace":{"abi":[{"anonymous":false,"inputs":[{"indexed":false,"internalType":"uint8","name":"version","type":"uint8"}],"name":"Initialized","type":"event"},{"anonymous":false,"inputs":[{"indexed":true,"internalType":"address","name":"previousOwner","type":"address"},{"indexed":true,"internalType":"address","name":"newOwner","type":"address"}],"name":"OwnershipTransferred","type":"event"},{"anonymous":false,"inputs":[{"indexed":false,"internalType":"address","name":"account","type":"address"}],"name":"Paused","type":"event"},{"anonymous":false,"inputs":[{"indexed":false,"internalType":"address","name":"account","type":"address"}],"name":"Unpaused","type":"event"},{"inputs":[],"name":"initialize","outputs":[],"stateMutability":"nonpayable","type":"function"},{"inputs":[],"name":"listingToken","outputs":[],"stateMutability":"nonpayable","type":"function"},{"inputs":[],"name":"onERC1155Received","outputs":[],"stateMutability":"nonpayable","type":"function"},{"inputs":[],"name":"owner","outputs":[{"internalType":"address","name":"","type":"address"}],"stateMutability":"view","type":"function"},{"inputs":[],"name":"paused","outputs":[{"internalType":"bool","name":"","type":"bool"}],"stateMutability":"view","type":"function"},{"inputs":[],"name":"renounceOwnership","outputs":[],"stateMutability":"nonpayable","type":"function"},{"inputs":[{"internalType":"address","name":"newOwner","type":"address"}],"name":"transferOwnership","outputs":[],"stateMutability":"nonpayable","type":"function"},{"inputs":[],"name":"unlistToken","outputs":[],"stateMutability":"nonpayable","type":"function"}],"evm":{"bytecode":{"linkReferences":{},"object":"608060405234801561001057600080fd5b50610450806100206000396000f3fe608060405234801561001057600080fd5b50600436106100885760003560e01c8063a38d190d1161005b578063a38d190d146100b0578063b1c7d3bf146100b0578063cdaf64f4146100b0578063f2fde38b146100d557600080fd5b80635c975abb1461008d578063715018a6146100a85780638129fc1c146100b25780638da5cb5b146100ba575b600080fd5b60655460ff1660405190151581526020015b60405180910390f35b6100b06100e8565b005b6100b06100fc565b6033546040516001600160a01b03909116815260200161009f565b6100b06100e336600461039f565b61021a565b6100f0610290565b6100fa60006102ea565b565b600054610100900460ff161580801561011c5750600054600160ff909116105b806101365750303b158015610136575060005460ff166001145b61019e5760405162461bcd60e51b815260206004820152602e60248201527f496e697469616c697a61626c653a20636f6e747261637420697320616c72656160448201526d191e481a5b9a5d1a585b1a5e995960921b60648201526084015b60405180910390fd5b6000805460ff1916600117905580156101c1576000805461ff0019166101001790555b6101c961033c565b6101d161036f565b8015610217576000805461ff0019169055604051600181527f7f26b83ff96e1f2b6a682f133852f6798a09c465da95921460cefb38474024989060200160405180910390a15b50565b610222610290565b6001600160a01b0381166102875760405162461bcd60e51b815260206004820152602660248201527f4f776e61626c653a206e6577206f776e657220697320746865207a65726f206160448201526564647265737360d01b6064820152608401610195565b610217816102ea565b6033546001600160a01b031633146100fa5760405162461bcd60e51b815260206004820181905260248201527f4f776e61626c653a2063616c6c6572206973206e6f7420746865206f776e65726044820152606401610195565b603380546001600160a01b038381166001600160a01b0319831681179093556040519116919082907f8be0079c531659141344cd1fd0a4f28419497f9722a3daafe3b4186f6b6457e090600090a35050565b600054610100900460ff166103635760405162461bcd60e51b8152600401610195906103cf565b6065805460ff19169055565b600054610100900460ff166103965760405162461bcd60e51b8152600401610195906103cf565b6100fa336102ea565b6000602082840312156103b157600080fd5b81356001600160a01b03811681146103c857600080fd5b9392505050565b6020808252602b908201527f496e697469616c697a61626c653a20636f6e7472616374206973206e6f74206960408201526a6e697469616c697a696e6760a81b60608201526080019056fea2646970667358221220fca06cfb635b815be43e991ae816453f33bb4b5ddfb8eb81cbe7e99e5ad3745d64736f6c63430008090033","opcodes":"PUSH1 0x80 PUSH1 0x40 MSTORE CALLVALUE DUP1 ISZERO PUSH2 0x10 JUMPI PUSH1 0x0 DUP1 REVERT JUMPDEST POP PUSH2 0x450 DUP1 PUSH2 0x20 PUSH1 0x0 CODECOPY PUSH1 0x0 RETURN INVALID PUSH1 0x80 PUSH1 0x40 MSTORE CALLVALUE DUP1 ISZERO PUSH2 0x10 JUMPI PUSH1 0x0 DUP1 REVERT JUMPDEST POP PUSH1 0x4 CALLDATASIZE LT PUSH2 0x88 JUMPI PUSH1 0x0 CALLDATALOAD PUSH1 0xE0 SHR DUP1 PUSH4 0xA38D190D GT PUSH2 0x5B JUMPI DUP1 PUSH4 0xA38D190D EQ PUSH2 0xB0 JUMPI DUP1 PUSH4 0xB1C7D3BF EQ PUSH2 0xB0 JUMPI DUP1 PUSH4 0xCDAF64F4 EQ PUSH2 0xB0 JUMPI DUP1 PUSH4 0xF2FDE38B EQ PUSH2 0xD5 JUMPI PUSH1 0x0 DUP1 REVERT JUMPDEST DUP1 PUSH4 0x5C975ABB EQ PUSH2 0x8D JUMPI DUP1 PUSH4 0x715018A6 EQ PUSH2 0xA8 JUMPI DUP1 PUSH4 0x8129FC1C EQ PUSH2 0xB2 JUMPI DUP1 PUSH4 0x8DA5CB5B EQ PUSH2 0xBA JUMPI JUMPDEST PUSH1 0x0 DUP1 REVERT JUMPDEST PUSH1 0x65 SLOAD PUSH1 0xFF AND PUSH1 0x40 MLOAD SWAP1 ISZERO ISZERO DUP2 MSTORE PUSH1 0x20 ADD JUMPDEST PUSH1 0x40 MLOAD DUP1 SWAP2 SUB SWAP1 RETURN JUMPDEST PUSH2 0xB0 PUSH2 0xE8 JUMP JUMPDEST STOP JUMPDEST PUSH2 0xB0 PUSH2 0xFC JUMP JUMPDEST PUSH1 0x33 SLOAD PUSH1 0x40 MLOAD PUSH1 0x1 PUSH1 0x1 PUSH1 0xA0 SHL SUB SWAP1 SWAP2 AND DUP2 MSTORE PUSH1 0x20 ADD PUSH2 0x9F JUMP JUMPDEST PUSH2 0xB0 PUSH2 0xE3 CALLDATASIZE PUSH1 0x4 PUSH2 0x39F JUMP JUMPDEST PUSH2 0x21A JUMP JUMPDEST PUSH2 0xF0 PUSH2 0x290 JUMP JUMPDEST PUSH2 0xFA PUSH1 0x0 PUSH2 0x2EA JUMP JUMPDEST JUMP JUMPDEST PUSH1 0x0 SLOAD PUSH2 0x100 SWAP1 DIV PUSH1 0xFF AND ISZERO DUP1 DUP1 ISZERO PUSH2 0x11C JUMPI POP PUSH1 0x0 SLOAD PUSH1 0x1 PUSH1 0xFF SWAP1 SWAP2 AND LT JUMPDEST DUP1 PUSH2 0x136 JUMPI POP ADDRESS EXTCODESIZE ISZERO DUP1 ISZERO PUSH2 0x136 JUMPI POP PUSH1 0x0 SLOAD PUSH1 0xFF AND PUSH1 0x1 EQ JUMPDEST PUSH2 0x19E JUMPI PUSH1 0x40 MLOAD PUSH3 0x461BCD PUSH1 0xE5 SHL DUP2 MSTORE PUSH1 0x20 PUSH1 0x4 DUP3 ADD MSTORE PUSH1 0x2E PUSH1 0x24 DUP3 ADD MSTORE PUSH32 0x496E697469616C697A61626C653A20636F6E747261637420697320616C726561 PUSH1 0x44 DUP3 ADD MSTORE PUSH14 0x191E481A5B9A5D1A585B1A5E9959 PUSH1 0x92 SHL PUSH1 0x64 DUP3 ADD MSTORE PUSH1 0x84 ADD JUMPDEST PUSH1 0x40 MLOAD DUP1 SWAP2 SUB SWAP1 REVERT JUMPDEST PUSH1 0x0 DUP1 SLOAD PUSH1 0xFF NOT AND PUSH1 0x1 OR SWAP1 SSTORE DUP1 ISZERO PUSH2 0x1C1 JUMPI PUSH1 0x0 DUP1 SLOAD PUSH2 0xFF00 NOT AND PUSH2 0x100 OR SWAP1 SSTORE JUMPDEST PUSH2 0x1C9 PUSH2 0x33C JUMP JUMPDEST PUSH2 0x1D1 PUSH2 0x36F JUMP JUMPDEST DUP1 ISZERO PUSH2 0x217 JUMPI PUSH1 0x0 DUP1 SLOAD PUSH2 0xFF00 NOT AND SWAP1 SSTORE PUSH1 0x40 MLOAD PUSH1 0x1 DUP2 MSTORE PUSH32 0x7F26B83FF96E1F2B6A682F133852F6798A09C465DA95921460CEFB3847402498 SWAP1 PUSH1 0x20 ADD PUSH1 0x40 MLOAD DUP1 SWAP2 SUB SWAP1 LOG1 JUMPDEST POP JUMP JUMPDEST PUSH2 0x222 PUSH2 0x290 JUMP JUMPDEST PUSH1 0x1 PUSH1 0x1 PUSH1 0xA0 SHL SUB DUP2 AND PUSH2 0x287 JUMPI PUSH1 0x40 MLOAD PUSH3 0x461BCD PUSH1 0xE5 SHL DUP2 MSTORE PUSH1 0x20 PUSH1 0x4 DUP3 ADD MSTORE PUSH1 0x26 PUSH1 0x24 DUP3 ADD MSTORE PUSH32 0x4F776E61626C653A206E6577206F776E657220697320746865207A65726F2061 PUSH1 0x44 DUP3 ADD MSTORE PUSH6 0x646472657373 PUSH1 0xD0 SHL PUSH1 0x64 DUP3 ADD MSTORE PUSH1 0x84 ADD PUSH2 0x195 JUMP JUMPDEST PUSH2 0x217 DUP2 PUSH2 0x2EA JUMP JUMPDEST PUSH1 0x33 SLOAD PUSH1 0x1 PUSH1 0x1 PUSH1 0xA0 SHL SUB AND CALLER EQ PUSH2 0xFA JUMPI PUSH1 0x40 MLOAD PUSH3 0x461BCD PUSH1 0xE5 SHL DUP2 MSTORE PUSH1 0x20 PUSH1 0x4 DUP3 ADD DUP2 SWAP1 MSTORE PUSH1 0x24 DUP3 ADD MSTORE PUSH32 0x4F776E61626C653A2063616C6C6572206973206E6F7420746865206F776E6572 PUSH1 0x44 DUP3 ADD MSTORE PUSH1 0x64 ADD PUSH2 0x195 JUMP JUMPDEST PUSH1 0x33 DUP1 SLOAD PUSH1 0x1 PUSH1 0x1 PUSH1 0xA0 SHL SUB DUP4 DUP2 AND PUSH1 0x1 PUSH1 0x1 PUSH1 0xA0 SHL SUB NOT DUP4 AND DUP2 OR SWAP1 SWAP4 SSTORE PUSH1 0x40 MLOAD SWAP2 AND SWAP2 SWAP1 DUP3 SWAP1 PUSH32 0x8BE0079C531659141344CD1FD0A4F28419497F9722A3DAAFE3B4186F6B6457E0 SWAP1 PUSH1 0x0 SWAP1 LOG3 POP POP JUMP JUMPDEST PUSH1 0x0 SLOAD PUSH2 0x100 SWAP1 DIV PUSH1 0xFF AND PUSH2 0x363 JUMPI PUSH1 0x40 MLOAD PUSH3 0x461BCD PUSH1 0xE5 SHL DUP2 MSTORE PUSH1 0x4 ADD PUSH2 0x195 SWAP1 PUSH2 0x3CF JUMP JUMPDEST PUSH1 0x65 DUP1 SLOAD PUSH1 0xFF NOT AND SWAP1 SSTORE JUMP JUMPDEST PUSH1 0x0 SLOAD PUSH2 0x100 SWAP1 DIV PUSH1 0xFF AND PUSH2 0x396 JUMPI PUSH1 0x40 MLOAD PUSH3 0x461BCD PUSH1 0xE5 SHL DUP2 MSTORE PUSH1 0x4 ADD PUSH2 0x195 SWAP1 PUSH2 0x3CF JUMP JUMPDEST PUSH2 0xFA CALLER PUSH2 0x2EA JUMP JUMPDEST PUSH1 0x0 PUSH1 0x20 DUP3 DUP5 SUB SLT ISZERO PUSH2 0x3B1 JUMPI PUSH1 0x0 DUP1 REVERT JUMPDEST DUP2 CALLDATALOAD PUSH1 0x1 PUSH1 0x1 PUSH1 0xA0 SHL SUB DUP2 AND DUP2 EQ PUSH2 0x3C8 JUMPI PUSH1 0x0 DUP1 REVERT JUMPDEST SWAP4 SWAP3 POP POP POP JUMP JUMPDEST PUSH1 0x20 DUP1 DUP3 MSTORE PUSH1 0x2B SWAP1 DUP3 ADD MSTORE PUSH32 0x496E697469616C697A61626C653A20636F6E7472616374206973206E6F742069 PUSH1 0x40 DUP3 ADD MSTORE PUSH11 0x6E697469616C697A696E67 PUSH1 0xA8 SHL PUSH1 0x60 DUP3 ADD MSTORE PUSH1 0x80 ADD SWAP1 JUMP INVALID LOG2 PUSH5 0x6970667358 0x22 SLT KECCAK256 0xFC LOG0 PUSH13 0xFB635B815BE43E991AE816453F CALLER 0xBB 0x4B 0x5D 0xDF 0xB8 0xEB DUP2 0xCB 0xE7 0xE9 SWAP15 GAS 0xD3 PUSH21 0x5D64736F6C63430008090033000000000000000000 "},"methodIdentifiers":{"initialize()":"8129fc1c","listingToken()":"cdaf64f4","onERC1155Received()":"a38d190d","owner()":"8da5cb5b","paused()":"5c975abb","renounceOwnership()":"715018a6","transferOwnership(address)":"f2fde38b","unlistToken()":"b1c7d3bf"}},"storageLayout":{"storage":[{"astId":138,"contract":"contracts/Maketplace.sol:Marketplace","label":"_initialized","offset":0,"slot":"0","type":"t_uint8"},{"astId":141,"contract":"contracts/Maketplace.sol:Marketplace","label":"_initializing","offset":1,"slot":"0","type":"t_bool"},{"astId":811,"contract":"contracts/Maketplace.sol:Marketplace","label":"__gap","offset":0,"slot":"1","type":"t_array(t_uint256)50_storage"},{"astId":10,"contract":"contracts/Maketplace.sol:Marketplace","label":"_owner","offset":0,"slot":"51","type":"t_address"},{"astId":130,"contract":"contracts/Maketplace.sol:Marketplace","label":"__gap","offset":0,"slot":"52","type":"t_array(t_uint256)49_storage"},{"astId":321,"contract":"contracts/Maketplace.sol:Marketplace","label":"_paused","offset":0,"slot":"101","type":"t_bool"},{"astId":426,"contract":"contracts/Maketplace.sol:Marketplace","label":"__gap","offset":0,"slot":"102","type":"t_array(t_uint256)49_storage"}],"types":{"t_address":{"encoding":"inplace","label":"address","numberOfBytes":"20"},"t_array(t_uint256)49_storage":{"base":"t_uint256","encoding":"inplace","label":"uint256[49]","numberOfBytes":"1568"},"t_array(t_uint256)50_storage":{"base":"t_uint256","encoding":"inplace","label":"uint256[50]","numberOfBytes":"1600"},"t_bool":{"encoding":"inplace","label":"bool","numberOfBytes":"1"},"t_uint256":{"encoding":"inplace","label":"uint256","numberOfBytes":"32"},"t_uint8":{"encoding":"inplace","label":"uint8","numberOfBytes":"1"}}}}}}