{
  "_format": "hh-sol-artifact-1",
  "contractName": "TokenERC1155",
  "sourceName": "contracts/tokenMock/Token1155.sol",
  "abi": [
    {
      "inputs": [],
      "stateMutability": "nonpayable",
      "type": "constructor"
    },
    {
      "anonymous": false,
      "inputs": [
        {
          "indexed": true,
          "internalType": "address",
          "name": "account",
          "type": "address"
        },
        {
          "indexed": true,
          "internalType": "address",
          "name": "operator",
          "type": "address"
        },
        {
          "indexed": false,
          "internalType": "bool",
          "name": "approved",
          "type": "bool"
        }
      ],
      "name": "ApprovalForAll",
      "type": "event"
    },
    {
      "anonymous": false,
      "inputs": [
        {
          "indexed": true,
          "internalType": "address",
          "name": "previousOwner",
          "type": "address"
        },
        {
          "indexed": true,
          "internalType": "address",
          "name": "newOwner",
          "type": "address"
        }
      ],
      "name": "OwnershipTransferred",
      "type": "event"
    },
    {
      "anonymous": false,
      "inputs": [
        {
          "indexed": true,
          "internalType": "address",
          "name": "operator",
          "type": "address"
        },
        {
          "indexed": true,
          "internalType": "address",
          "name": "from",
          "type": "address"
        },
        {
          "indexed": true,
          "internalType": "address",
          "name": "to",
          "type": "address"
        },
        {
          "indexed": false,
          "internalType": "uint256[]",
          "name": "ids",
          "type": "uint256[]"
        },
        {
          "indexed": false,
          "internalType": "uint256[]",
          "name": "values",
          "type": "uint256[]"
        }
      ],
      "name": "TransferBatch",
      "type": "event"
    },
    {
      "anonymous": false,
      "inputs": [
        {
          "indexed": true,
          "internalType": "address",
          "name": "operator",
          "type": "address"
        },
        {
          "indexed": true,
          "internalType": "address",
          "name": "from",
          "type": "address"
        },
        {
          "indexed": true,
          "internalType": "address",
          "name": "to",
          "type": "address"
        },
        {
          "indexed": false,
          "internalType": "uint256",
          "name": "id",
          "type": "uint256"
        },
        {
          "indexed": false,
          "internalType": "uint256",
          "name": "value",
          "type": "uint256"
        }
      ],
      "name": "TransferSingle",
      "type": "event"
    },
    {
      "anonymous": false,
      "inputs": [
        {
          "indexed": false,
          "internalType": "string",
          "name": "value",
          "type": "string"
        },
        {
          "indexed": true,
          "internalType": "uint256",
          "name": "id",
          "type": "uint256"
        }
      ],
      "name": "URI",
      "type": "event"
    },
    {
      "inputs": [
        {
          "internalType": "address",
          "name": "account",
          "type": "address"
        },
        {
          "internalType": "uint256",
          "name": "id",
          "type": "uint256"
        }
      ],
      "name": "balanceOf",
      "outputs": [
        {
          "internalType": "uint256",
          "name": "",
          "type": "uint256"
        }
      ],
      "stateMutability": "view",
      "type": "function"
    },
    {
      "inputs": [
        {
          "internalType": "address[]",
          "name": "accounts",
          "type": "address[]"
        },
        {
          "internalType": "uint256[]",
          "name": "ids",
          "type": "uint256[]"
        }
      ],
      "name": "balanceOfBatch",
      "outputs": [
        {
          "internalType": "uint256[]",
          "name": "",
          "type": "uint256[]"
        }
      ],
      "stateMutability": "view",
      "type": "function"
    },
    {
      "inputs": [
        {
          "internalType": "address",
          "name": "from",
          "type": "address"
        },
        {
          "internalType": "uint256",
          "name": "id",
          "type": "uint256"
        },
        {
          "internalType": "uint256",
          "name": "amount",
          "type": "uint256"
        }
      ],
      "name": "burn",
      "outputs": [],
      "stateMutability": "nonpayable",
      "type": "function"
    },
    {
      "inputs": [
        {
          "internalType": "address",
          "name": "from",
          "type": "address"
        },
        {
          "internalType": "uint256[]",
          "name": "ids",
          "type": "uint256[]"
        },
        {
          "internalType": "uint256[]",
          "name": "amounts",
          "type": "uint256[]"
        }
      ],
      "name": "burnBatch",
      "outputs": [],
      "stateMutability": "nonpayable",
      "type": "function"
    },
    {
      "inputs": [
        {
          "internalType": "address",
          "name": "account",
          "type": "address"
        },
        {
          "internalType": "address",
          "name": "operator",
          "type": "address"
        }
      ],
      "name": "isApprovedForAll",
      "outputs": [
        {
          "internalType": "bool",
          "name": "",
          "type": "bool"
        }
      ],
      "stateMutability": "view",
      "type": "function"
    },
    {
      "inputs": [
        {
          "internalType": "address",
          "name": "to",
          "type": "address"
        },
        {
          "internalType": "uint256",
          "name": "tokenId",
          "type": "uint256"
        },
        {
          "internalType": "uint256",
          "name": "amount",
          "type": "uint256"
        },
        {
          "internalType": "bytes",
          "name": "data",
          "type": "bytes"
        }
      ],
      "name": "mint",
      "outputs": [],
      "stateMutability": "nonpayable",
      "type": "function"
    },
    {
      "inputs": [
        {
          "internalType": "address",
          "name": "to",
          "type": "address"
        },
        {
          "internalType": "uint256[]",
          "name": "ids",
          "type": "uint256[]"
        },
        {
          "internalType": "uint256[]",
          "name": "amounts",
          "type": "uint256[]"
        },
        {
          "internalType": "bytes",
          "name": "data",
          "type": "bytes"
        }
      ],
      "name": "mintBatch",
      "outputs": [],
      "stateMutability": "nonpayable",
      "type": "function"
    },
    {
      "inputs": [],
      "name": "owner",
      "outputs": [
        {
          "internalType": "address",
          "name": "",
          "type": "address"
        }
      ],
      "stateMutability": "view",
      "type": "function"
    },
    {
      "inputs": [],
      "name": "renounceOwnership",
      "outputs": [],
      "stateMutability": "nonpayable",
      "type": "function"
    },
    {
      "inputs": [
        {
          "internalType": "address",
          "name": "from",
          "type": "address"
        },
        {
          "internalType": "address",
          "name": "to",
          "type": "address"
        },
        {
          "internalType": "uint256[]",
          "name": "ids",
          "type": "uint256[]"
        },
        {
          "internalType": "uint256[]",
          "name": "amounts",
          "type": "uint256[]"
        },
        {
          "internalType": "bytes",
          "name": "data",
          "type": "bytes"
        }
      ],
      "name": "safeBatchTransferFrom",
      "outputs": [],
      "stateMutability": "nonpayable",
      "type": "function"
    },
    {
      "inputs": [
        {
          "internalType": "address",
          "name": "from",
          "type": "address"
        },
        {
          "internalType": "address",
          "name": "to",
          "type": "address"
        },
        {
          "internalType": "uint256",
          "name": "id",
          "type": "uint256"
        },
        {
          "internalType": "uint256",
          "name": "amount",
          "type": "uint256"
        },
        {
          "internalType": "bytes",
          "name": "data",
          "type": "bytes"
        }
      ],
      "name": "safeTransferFrom",
      "outputs": [],
      "stateMutability": "nonpayable",
      "type": "function"
    },
    {
      "inputs": [
        {
          "internalType": "address",
          "name": "operator",
          "type": "address"
        },
        {
          "internalType": "bool",
          "name": "approved",
          "type": "bool"
        }
      ],
      "name": "setApprovalForAll",
      "outputs": [],
      "stateMutability": "nonpayable",
      "type": "function"
    },
    {
      "inputs": [
        {
          "internalType": "bytes4",
          "name": "interfaceId",
          "type": "bytes4"
        }
      ],
      "name": "supportsInterface",
      "outputs": [
        {
          "internalType": "bool",
          "name": "",
          "type": "bool"
        }
      ],
      "stateMutability": "view",
      "type": "function"
    },
    {
      "inputs": [
        {
          "internalType": "address",
          "name": "newOwner",
          "type": "address"
        }
      ],
      "name": "transferOwnership",
      "outputs": [],
      "stateMutability": "nonpayable",
      "type": "function"
    },
    {
      "inputs": [
        {
          "internalType": "uint256",
          "name": "",
          "type": "uint256"
        }
      ],
      "name": "uri",
      "outputs": [
        {
          "internalType": "string",
          "name": "",
          "type": "string"
        }
      ],
      "stateMutability": "view",
      "type": "function"
    }
  ],
  "bytecode": "0x60806040523480156200001157600080fd5b506040805160208101909152600081526200002c816200003e565b50620000383362000057565b6200018c565b805162000053906002906020840190620000a9565b5050565b600380546001600160a01b038381166001600160a01b0319831681179093556040519116919082907f8be0079c531659141344cd1fd0a4f28419497f9722a3daafe3b4186f6b6457e090600090a35050565b828054620000b7906200014f565b90600052602060002090601f016020900481019282620000db576000855562000126565b82601f10620000f657805160ff191683800117855562000126565b8280016001018555821562000126579182015b828111156200012657825182559160200191906001019062000109565b506200013492915062000138565b5090565b5b8082111562000134576000815560010162000139565b600181811c908216806200016457607f821691505b602082108114156200018657634e487b7160e01b600052602260045260246000fd5b50919050565b611d4a806200019c6000396000f3fe608060405234801561001057600080fd5b50600436106100f45760003560e01c8063715018a611610097578063e985e9c511610066578063e985e9c514610206578063f242432a14610242578063f2fde38b14610255578063f5298aca1461026857600080fd5b8063715018a6146101bd578063731133e9146101c55780638da5cb5b146101d8578063a22cb465146101f357600080fd5b80631f7fdffa116100d35780631f7fdffa146101625780632eb2c2d6146101775780634e1273f41461018a5780636b20c454146101aa57600080fd5b8062fdd58e146100f957806301ffc9a71461011f5780630e89341c14610142575b600080fd5b61010c610107366004611241565b61027b565b6040519081526020015b60405180910390f35b61013261012d366004611281565b610311565b6040519015158152602001610116565b6101556101503660046112a5565b610363565b604051610116919061130b565b61017561017036600461146a565b6103f7565b005b610175610185366004611503565b610411565b61019d6101983660046115ad565b61045d565b60405161011691906116b3565b6101756101b83660046116c6565b610587565b610175610597565b6101756101d336600461173a565b6105ab565b6003546040516001600160a01b039091168152602001610116565b61017561020136600461178f565b6105bf565b6101326102143660046117cb565b6001600160a01b03918216600090815260016020908152604080832093909416825291909152205460ff1690565b6101756102503660046117fe565b6105ce565b610175610263366004611863565b610613565b61017561027636600461187e565b61068c565b60006001600160a01b0383166102eb5760405162461bcd60e51b815260206004820152602a60248201527f455243313135353a2061646472657373207a65726f206973206e6f742061207660448201526930b634b21037bbb732b960b11b60648201526084015b60405180910390fd5b506000908152602081815260408083206001600160a01b03949094168352929052205490565b60006001600160e01b03198216636cdb3d1360e11b148061034257506001600160e01b031982166303a24d0760e21b145b8061035d57506301ffc9a760e01b6001600160e01b03198316145b92915050565b606060028054610372906118b1565b80601f016020809104026020016040519081016040528092919081815260200182805461039e906118b1565b80156103eb5780601f106103c0576101008083540402835291602001916103eb565b820191906000526020600020905b8154815290600101906020018083116103ce57829003601f168201915b50505050509050919050565b6103ff61069f565b61040b848484846106f9565b50505050565b6001600160a01b03851633148061042d575061042d8533610214565b6104495760405162461bcd60e51b81526004016102e2906118ec565b6104568585858585610844565b5050505050565b606081518351146104c25760405162461bcd60e51b815260206004820152602960248201527f455243313135353a206163636f756e747320616e6420696473206c656e677468604482015268040dad2e6dac2e8c6d60bb1b60648201526084016102e2565b6000835167ffffffffffffffff8111156104de576104de61131e565b604051908082528060200260200182016040528015610507578160200160208202803683370190505b50905060005b845181101561057f5761055285828151811061052b5761052b61193a565b60200260200101518583815181106105455761054561193a565b602002602001015161027b565b8282815181106105645761056461193a565b602090810291909101015261057881611966565b905061050d565b509392505050565b6105928383836109e0565b505050565b61059f61069f565b6105a96000610b6a565b565b6105b361069f565b61040b84848484610bbc565b6105ca338383610c96565b5050565b6001600160a01b0385163314806105ea57506105ea8533610214565b6106065760405162461bcd60e51b81526004016102e2906118ec565b6104568585858585610d77565b61061b61069f565b6001600160a01b0381166106805760405162461bcd60e51b815260206004820152602660248201527f4f776e61626c653a206e6577206f776e657220697320746865207a65726f206160448201526564647265737360d01b60648201526084016102e2565b61068981610b6a565b50565b61069461069f565b610592838383610ea1565b6003546001600160a01b031633146105a95760405162461bcd60e51b815260206004820181905260248201527f4f776e61626c653a2063616c6c6572206973206e6f7420746865206f776e657260448201526064016102e2565b6001600160a01b03841661071f5760405162461bcd60e51b81526004016102e290611981565b81518351146107405760405162461bcd60e51b81526004016102e2906119c2565b3360005b84518110156107dc5783818151811061075f5761075f61193a565b602002602001015160008087848151811061077c5761077c61193a565b602002602001015181526020019081526020016000206000886001600160a01b03166001600160a01b0316815260200190815260200160002060008282546107c49190611a0a565b909155508190506107d481611966565b915050610744565b50846001600160a01b031660006001600160a01b0316826001600160a01b03167f4a39dc06d4c0dbc64b70af90fd698a233a518aa5d07e595d983b8c0526c8f7fb878760405161082d929190611a22565b60405180910390a461045681600087878787610fa5565b81518351146108655760405162461bcd60e51b81526004016102e2906119c2565b6001600160a01b03841661088b5760405162461bcd60e51b81526004016102e290611a50565b3360005b84518110156109725760008582815181106108ac576108ac61193a565b6020026020010151905060008583815181106108ca576108ca61193a565b602090810291909101810151600084815280835260408082206001600160a01b038e16835290935291909120549091508181101561091a5760405162461bcd60e51b81526004016102e290611a95565b6000838152602081815260408083206001600160a01b038e8116855292528083208585039055908b16825281208054849290610957908490611a0a565b925050819055505050508061096b90611966565b905061088f565b50846001600160a01b0316866001600160a01b0316826001600160a01b03167f4a39dc06d4c0dbc64b70af90fd698a233a518aa5d07e595d983b8c0526c8f7fb87876040516109c2929190611a22565b60405180910390a46109d8818787878787610fa5565b505050505050565b6001600160a01b038316610a065760405162461bcd60e51b81526004016102e290611adf565b8051825114610a275760405162461bcd60e51b81526004016102e2906119c2565b604080516020810190915260009081905233905b8351811015610afd576000848281518110610a5857610a5861193a565b602002602001015190506000848381518110610a7657610a7661193a565b602090810291909101810151600084815280835260408082206001600160a01b038c168352909352919091205490915081811015610ac65760405162461bcd60e51b81526004016102e290611b22565b6000928352602083815260408085206001600160a01b038b1686529091529092209103905580610af581611966565b915050610a3b565b5060006001600160a01b0316846001600160a01b0316826001600160a01b03167f4a39dc06d4c0dbc64b70af90fd698a233a518aa5d07e595d983b8c0526c8f7fb8686604051610b4e929190611a22565b60405180910390a460408051602081019091526000905261040b565b600380546001600160a01b038381166001600160a01b0319831681179093556040519116919082907f8be0079c531659141344cd1fd0a4f28419497f9722a3daafe3b4186f6b6457e090600090a35050565b6001600160a01b038416610be25760405162461bcd60e51b81526004016102e290611981565b336000610bee85611110565b90506000610bfb85611110565b90506000868152602081815260408083206001600160a01b038b16845290915281208054879290610c2d908490611a0a565b909155505060408051878152602081018790526001600160a01b03808a1692600092918716917fc3d58168c5ae7397731d063d5bbf3d657854427343f4c083240f7aacaa2d0f62910160405180910390a4610c8d8360008989898961115b565b50505050505050565b816001600160a01b0316836001600160a01b03161415610d0a5760405162461bcd60e51b815260206004820152602960248201527f455243313135353a2073657474696e6720617070726f76616c20737461747573604482015268103337b91039b2b63360b91b60648201526084016102e2565b6001600160a01b03838116600081815260016020908152604080832094871680845294825291829020805460ff191686151590811790915591519182527f17307eab39ab6107e8899845ad3d59bd9653f200f220920489ca2b5937696c31910160405180910390a3505050565b6001600160a01b038416610d9d5760405162461bcd60e51b81526004016102e290611a50565b336000610da985611110565b90506000610db685611110565b90506000868152602081815260408083206001600160a01b038c16845290915290205485811015610df95760405162461bcd60e51b81526004016102e290611a95565b6000878152602081815260408083206001600160a01b038d8116855292528083208985039055908a16825281208054889290610e36908490611a0a565b909155505060408051888152602081018890526001600160a01b03808b16928c821692918816917fc3d58168c5ae7397731d063d5bbf3d657854427343f4c083240f7aacaa2d0f62910160405180910390a4610e96848a8a8a8a8a61115b565b505050505050505050565b6001600160a01b038316610ec75760405162461bcd60e51b81526004016102e290611adf565b336000610ed384611110565b90506000610ee084611110565b60408051602080820183526000918290528882528181528282206001600160a01b038b1683529052205490915084811015610f2d5760405162461bcd60e51b81526004016102e290611b22565b6000868152602081815260408083206001600160a01b038b81168086529184528285208a8703905582518b81529384018a90529092908816917fc3d58168c5ae7397731d063d5bbf3d657854427343f4c083240f7aacaa2d0f62910160405180910390a4604080516020810190915260009052610c8d565b6001600160a01b0384163b156109d85760405163bc197c8160e01b81526001600160a01b0385169063bc197c8190610fe99089908990889088908890600401611b66565b602060405180830381600087803b15801561100357600080fd5b505af1925050508015611033575060408051601f3d908101601f1916820190925261103091810190611bc4565b60015b6110e05761103f611be1565b806308c379a014156110795750611054611bfd565b8061105f575061107b565b8060405162461bcd60e51b81526004016102e2919061130b565b505b60405162461bcd60e51b815260206004820152603460248201527f455243313135353a207472616e7366657220746f206e6f6e2d455243313135356044820152732932b1b2b4bb32b91034b6b83632b6b2b73a32b960611b60648201526084016102e2565b6001600160e01b0319811663bc197c8160e01b14610c8d5760405162461bcd60e51b81526004016102e290611c87565b6040805160018082528183019092526060916000919060208083019080368337019050509050828160008151811061114a5761114a61193a565b602090810291909101015292915050565b6001600160a01b0384163b156109d85760405163f23a6e6160e01b81526001600160a01b0385169063f23a6e619061119f9089908990889088908890600401611ccf565b602060405180830381600087803b1580156111b957600080fd5b505af19250505080156111e9575060408051601f3d908101601f191682019092526111e691810190611bc4565b60015b6111f55761103f611be1565b6001600160e01b0319811663f23a6e6160e01b14610c8d5760405162461bcd60e51b81526004016102e290611c87565b80356001600160a01b038116811461123c57600080fd5b919050565b6000806040838503121561125457600080fd5b61125d83611225565b946020939093013593505050565b6001600160e01b03198116811461068957600080fd5b60006020828403121561129357600080fd5b813561129e8161126b565b9392505050565b6000602082840312156112b757600080fd5b5035919050565b6000815180845260005b818110156112e4576020818501810151868301820152016112c8565b818111156112f6576000602083870101525b50601f01601f19169290920160200192915050565b60208152600061129e60208301846112be565b634e487b7160e01b600052604160045260246000fd5b601f8201601f1916810167ffffffffffffffff8111828210171561135a5761135a61131e565b6040525050565b600067ffffffffffffffff82111561137b5761137b61131e565b5060051b60200190565b600082601f83011261139657600080fd5b813560206113a382611361565b6040516113b08282611334565b83815260059390931b85018201928281019150868411156113d057600080fd5b8286015b848110156113eb57803583529183019183016113d4565b509695505050505050565b600082601f83011261140757600080fd5b813567ffffffffffffffff8111156114215761142161131e565b604051611438601f8301601f191660200182611334565b81815284602083860101111561144d57600080fd5b816020850160208301376000918101602001919091529392505050565b6000806000806080858703121561148057600080fd5b61148985611225565b9350602085013567ffffffffffffffff808211156114a657600080fd5b6114b288838901611385565b945060408701359150808211156114c857600080fd5b6114d488838901611385565b935060608701359150808211156114ea57600080fd5b506114f7878288016113f6565b91505092959194509250565b600080600080600060a0868803121561151b57600080fd5b61152486611225565b945061153260208701611225565b9350604086013567ffffffffffffffff8082111561154f57600080fd5b61155b89838a01611385565b9450606088013591508082111561157157600080fd5b61157d89838a01611385565b9350608088013591508082111561159357600080fd5b506115a0888289016113f6565b9150509295509295909350565b600080604083850312156115c057600080fd5b823567ffffffffffffffff808211156115d857600080fd5b818501915085601f8301126115ec57600080fd5b813560206115f982611361565b6040516116068282611334565b83815260059390931b850182019282810191508984111561162657600080fd5b948201945b8386101561164b5761163c86611225565b8252948201949082019061162b565b9650508601359250508082111561166157600080fd5b5061166e85828601611385565b9150509250929050565b600081518084526020808501945080840160005b838110156116a85781518752958201959082019060010161168c565b509495945050505050565b60208152600061129e6020830184611678565b6000806000606084860312156116db57600080fd5b6116e484611225565b9250602084013567ffffffffffffffff8082111561170157600080fd5b61170d87838801611385565b9350604086013591508082111561172357600080fd5b5061173086828701611385565b9150509250925092565b6000806000806080858703121561175057600080fd5b61175985611225565b93506020850135925060408501359150606085013567ffffffffffffffff81111561178357600080fd5b6114f7878288016113f6565b600080604083850312156117a257600080fd5b6117ab83611225565b9150602083013580151581146117c057600080fd5b809150509250929050565b600080604083850312156117de57600080fd5b6117e783611225565b91506117f560208401611225565b90509250929050565b600080600080600060a0868803121561181657600080fd5b61181f86611225565b945061182d60208701611225565b93506040860135925060608601359150608086013567ffffffffffffffff81111561185757600080fd5b6115a0888289016113f6565b60006020828403121561187557600080fd5b61129e82611225565b60008060006060848603121561189357600080fd5b61189c84611225565b95602085013595506040909401359392505050565b600181811c908216806118c557607f821691505b602082108114156118e657634e487b7160e01b600052602260045260246000fd5b50919050565b6020808252602e908201527f455243313135353a2063616c6c6572206973206e6f7420746f6b656e206f776e60408201526d195c881bdc88185c1c1c9bdd995960921b606082015260800190565b634e487b7160e01b600052603260045260246000fd5b634e487b7160e01b600052601160045260246000fd5b600060001982141561197a5761197a611950565b5060010190565b60208082526021908201527f455243313135353a206d696e7420746f20746865207a65726f206164647265736040820152607360f81b606082015260800190565b60208082526028908201527f455243313135353a2069647320616e6420616d6f756e7473206c656e677468206040820152670dad2e6dac2e8c6d60c31b606082015260800190565b60008219821115611a1d57611a1d611950565b500190565b604081526000611a356040830185611678565b8281036020840152611a478185611678565b95945050505050565b60208082526025908201527f455243313135353a207472616e7366657220746f20746865207a65726f206164604082015264647265737360d81b606082015260800190565b6020808252602a908201527f455243313135353a20696e73756666696369656e742062616c616e636520666f60408201526939103a3930b739b332b960b11b606082015260800190565b60208082526023908201527f455243313135353a206275726e2066726f6d20746865207a65726f206164647260408201526265737360e81b606082015260800190565b60208082526024908201527f455243313135353a206275726e20616d6f756e7420657863656564732062616c604082015263616e636560e01b606082015260800190565b6001600160a01b0386811682528516602082015260a060408201819052600090611b9290830186611678565b8281036060840152611ba48186611678565b90508281036080840152611bb881856112be565b98975050505050505050565b600060208284031215611bd657600080fd5b815161129e8161126b565b600060033d1115611bfa5760046000803e5060005160e01c5b90565b600060443d1015611c0b5790565b6040516003193d81016004833e81513d67ffffffffffffffff8160248401118184111715611c3b57505050505090565b8285019150815181811115611c535750505050505090565b843d8701016020828501011115611c6d5750505050505090565b611c7c60208286010187611334565b509095945050505050565b60208082526028908201527f455243313135353a204552433131353552656365697665722072656a656374656040820152676420746f6b656e7360c01b606082015260800190565b6001600160a01b03868116825285166020820152604081018490526060810183905260a060808201819052600090611d09908301846112be565b97965050505050505056fea264697066735822122092fa0863a0733d69f6f46912bc368e62f0a110d664fb8c2e6f07f6e36cada9ae64736f6c63430008090033",
  "linkReferences": {},
  "deployedLinkReferences": {}
}