{
  "_format": "hh-sol-artifact-1",
  "contractName": "Maketplace",
  "sourceName": "contracts/Maketplace.sol",
  "abi": [
    {
      "anonymous": false,
      "inputs": [
        {
          "indexed": false,
          "internalType": "uint8",
          "name": "version",
          "type": "uint8"
        }
      ],
      "name": "Initialized",
      "type": "event"
    },
    {
      "anonymous": false,
      "inputs": [
        {
          "indexed": false,
          "internalType": "address",
          "name": "seller",
          "type": "address"
        },
        {
          "indexed": false,
          "internalType": "uint256",
          "name": "tokenId",
          "type": "uint256"
        },
        {
          "indexed": false,
          "internalType": "uint256",
          "name": "amount",
          "type": "uint256"
        },
        {
          "indexed": false,
          "internalType": "uint256",
          "name": "price",
          "type": "uint256"
        }
      ],
      "name": "NFTListed",
      "type": "event"
    },
    {
      "anonymous": false,
      "inputs": [
        {
          "indexed": false,
          "internalType": "address",
          "name": "userAddress",
          "type": "address"
        },
        {
          "indexed": false,
          "internalType": "uint256",
          "name": "listingId",
          "type": "uint256"
        }
      ],
      "name": "NFTSold",
      "type": "event"
    },
    {
      "anonymous": false,
      "inputs": [
        {
          "indexed": false,
          "internalType": "address",
          "name": "userAddress",
          "type": "address"
        },
        {
          "indexed": false,
          "internalType": "uint256",
          "name": "listingId",
          "type": "uint256"
        }
      ],
      "name": "NFTUnlisted",
      "type": "event"
    },
    {
      "anonymous": false,
      "inputs": [
        {
          "indexed": true,
          "internalType": "address",
          "name": "previousOwner",
          "type": "address"
        },
        {
          "indexed": true,
          "internalType": "address",
          "name": "newOwner",
          "type": "address"
        }
      ],
      "name": "OwnershipTransferred",
      "type": "event"
    },
    {
      "anonymous": false,
      "inputs": [
        {
          "indexed": false,
          "internalType": "address",
          "name": "account",
          "type": "address"
        }
      ],
      "name": "Paused",
      "type": "event"
    },
    {
      "anonymous": false,
      "inputs": [
        {
          "indexed": false,
          "internalType": "address",
          "name": "account",
          "type": "address"
        }
      ],
      "name": "Unpaused",
      "type": "event"
    },
    {
      "inputs": [],
      "name": "ERC1155_INTERFACE_ID",
      "outputs": [
        {
          "internalType": "bytes4",
          "name": "",
          "type": "bytes4"
        }
      ],
      "stateMutability": "view",
      "type": "function"
    },
    {
      "inputs": [],
      "name": "ERC721_INTERFACE_ID",
      "outputs": [
        {
          "internalType": "bytes4",
          "name": "",
          "type": "bytes4"
        }
      ],
      "stateMutability": "view",
      "type": "function"
    },
    {
      "inputs": [],
      "name": "initialize",
      "outputs": [],
      "stateMutability": "nonpayable",
      "type": "function"
    },
    {
      "inputs": [
        {
          "internalType": "address",
          "name": "_addrNft",
          "type": "address"
        },
        {
          "internalType": "address",
          "name": "_paymentToken",
          "type": "address"
        },
        {
          "internalType": "uint256",
          "name": "_tokenId",
          "type": "uint256"
        },
        {
          "internalType": "uint256",
          "name": "_amount",
          "type": "uint256"
        },
        {
          "internalType": "uint256",
          "name": "_price",
          "type": "uint256"
        }
      ],
      "name": "listing",
      "outputs": [],
      "stateMutability": "payable",
      "type": "function"
    },
    {
      "inputs": [],
      "name": "listingFee",
      "outputs": [
        {
          "internalType": "uint256",
          "name": "",
          "type": "uint256"
        }
      ],
      "stateMutability": "view",
      "type": "function"
    },
    {
      "inputs": [
        {
          "internalType": "uint256",
          "name": "",
          "type": "uint256"
        }
      ],
      "name": "listings",
      "outputs": [
        {
          "internalType": "address",
          "name": "seller",
          "type": "address"
        },
        {
          "internalType": "address",
          "name": "paymentToken",
          "type": "address"
        },
        {
          "internalType": "address",
          "name": "nft",
          "type": "address"
        },
        {
          "internalType": "uint256",
          "name": "tokenId",
          "type": "uint256"
        },
        {
          "internalType": "uint256",
          "name": "amount",
          "type": "uint256"
        },
        {
          "internalType": "uint256",
          "name": "price",
          "type": "uint256"
        }
      ],
      "stateMutability": "view",
      "type": "function"
    },
    {
      "inputs": [],
      "name": "nextListingId",
      "outputs": [
        {
          "internalType": "uint256",
          "name": "",
          "type": "uint256"
        }
      ],
      "stateMutability": "view",
      "type": "function"
    },
    {
      "inputs": [
        {
          "internalType": "address",
          "name": "operator",
          "type": "address"
        },
        {
          "internalType": "address",
          "name": "from",
          "type": "address"
        },
        {
          "internalType": "uint256[]",
          "name": "ids",
          "type": "uint256[]"
        },
        {
          "internalType": "uint256[]",
          "name": "values",
          "type": "uint256[]"
        },
        {
          "internalType": "bytes",
          "name": "data",
          "type": "bytes"
        }
      ],
      "name": "onERC1155BatchReceived",
      "outputs": [
        {
          "internalType": "bytes4",
          "name": "",
          "type": "bytes4"
        }
      ],
      "stateMutability": "pure",
      "type": "function"
    },
    {
      "inputs": [
        {
          "internalType": "address",
          "name": "operator",
          "type": "address"
        },
        {
          "internalType": "address",
          "name": "from",
          "type": "address"
        },
        {
          "internalType": "uint256",
          "name": "tokenId",
          "type": "uint256"
        },
        {
          "internalType": "uint256",
          "name": "value",
          "type": "uint256"
        },
        {
          "internalType": "bytes",
          "name": "data",
          "type": "bytes"
        }
      ],
      "name": "onERC1155Received",
      "outputs": [
        {
          "internalType": "bytes4",
          "name": "",
          "type": "bytes4"
        }
      ],
      "stateMutability": "pure",
      "type": "function"
    },
    {
      "inputs": [
        {
          "internalType": "address",
          "name": "operator",
          "type": "address"
        },
        {
          "internalType": "address",
          "name": "from",
          "type": "address"
        },
        {
          "internalType": "uint256",
          "name": "tokenId",
          "type": "uint256"
        },
        {
          "internalType": "bytes",
          "name": "data",
          "type": "bytes"
        }
      ],
      "name": "onERC721Received",
      "outputs": [
        {
          "internalType": "bytes4",
          "name": "",
          "type": "bytes4"
        }
      ],
      "stateMutability": "pure",
      "type": "function"
    },
    {
      "inputs": [],
      "name": "owner",
      "outputs": [
        {
          "internalType": "address",
          "name": "",
          "type": "address"
        }
      ],
      "stateMutability": "view",
      "type": "function"
    },
    {
      "inputs": [],
      "name": "paused",
      "outputs": [
        {
          "internalType": "bool",
          "name": "",
          "type": "bool"
        }
      ],
      "stateMutability": "view",
      "type": "function"
    },
    {
      "inputs": [],
      "name": "percentFee",
      "outputs": [
        {
          "internalType": "uint256",
          "name": "",
          "type": "uint256"
        }
      ],
      "stateMutability": "view",
      "type": "function"
    },
    {
      "inputs": [
        {
          "internalType": "uint256",
          "name": "_listingId",
          "type": "uint256"
        }
      ],
      "name": "purchaseNFT",
      "outputs": [],
      "stateMutability": "nonpayable",
      "type": "function"
    },
    {
      "inputs": [],
      "name": "renounceOwnership",
      "outputs": [],
      "stateMutability": "nonpayable",
      "type": "function"
    },
    {
      "inputs": [
        {
          "internalType": "address",
          "name": "token",
          "type": "address"
        },
        {
          "internalType": "uint256",
          "name": "amount",
          "type": "uint256"
        }
      ],
      "name": "rescueStuck",
      "outputs": [],
      "stateMutability": "nonpayable",
      "type": "function"
    },
    {
      "inputs": [
        {
          "internalType": "uint256",
          "name": "_listingFee",
          "type": "uint256"
        },
        {
          "internalType": "uint256",
          "name": "_unListingFee",
          "type": "uint256"
        }
      ],
      "name": "setFee",
      "outputs": [],
      "stateMutability": "nonpayable",
      "type": "function"
    },
    {
      "inputs": [
        {
          "internalType": "uint256",
          "name": "_percent",
          "type": "uint256"
        }
      ],
      "name": "setPercentFee",
      "outputs": [],
      "stateMutability": "nonpayable",
      "type": "function"
    },
    {
      "inputs": [
        {
          "internalType": "bytes4",
          "name": "interfaceId",
          "type": "bytes4"
        }
      ],
      "name": "supportsInterface",
      "outputs": [
        {
          "internalType": "bool",
          "name": "",
          "type": "bool"
        }
      ],
      "stateMutability": "pure",
      "type": "function"
    },
    {
      "inputs": [
        {
          "internalType": "address",
          "name": "newOwner",
          "type": "address"
        }
      ],
      "name": "transferOwnership",
      "outputs": [],
      "stateMutability": "nonpayable",
      "type": "function"
    },
    {
      "inputs": [
        {
          "internalType": "uint256",
          "name": "_listingId",
          "type": "uint256"
        }
      ],
      "name": "unListing",
      "outputs": [],
      "stateMutability": "payable",
      "type": "function"
    },
    {
      "inputs": [],
      "name": "unListingFee",
      "outputs": [
        {
          "internalType": "uint256",
          "name": "",
          "type": "uint256"
        }
      ],
      "stateMutability": "view",
      "type": "function"
    }
  ],
  "bytecode": "0x608060405234801561001057600080fd5b506116a0806100206000396000f3fe6080604052600436106101355760003560e01c80636a2a4544116100ab578063aaccf1ec1161006f578063aaccf1ec1461033d578063bc197c8114610353578063de74e57b14610382578063f23a6e611461041e578063f2fde38b1461044b578063fe7f0c5c1461046b57600080fd5b80636a2a4544146102c5578063715018a6146102d85780637176ba2f146102ed5780638129fc1c146103005780638da5cb5b1461031557600080fd5b80633efae5f8116100fd5780633efae5f8146102225780634c1a41151461024657806352f7c9881461025c57806359f4a9071461027c5780635c975abb146102975780636a1b7ecc146102af57600080fd5b806301ffc9a71461013a5780630550102314610180578063150b7a02146101a2578063150bde03146101e75780632ca069a514610207575b600080fd5b34801561014657600080fd5b5061016b61015536600461122a565b6001600160e01b0319166301ffc9a760e01b1490565b60405190151581526020015b60405180910390f35b34801561018c57600080fd5b506101a061019b36600461125b565b61048b565b005b3480156101ae57600080fd5b506101ce6101bd3660046112d9565b630a85bd0160e11b95945050505050565b6040516001600160e01b03199091168152602001610177565b3480156101f357600080fd5b506101a061020236600461125b565b610498565b34801561021357600080fd5b506101ce636cdb3d1360e11b81565b34801561022e57600080fd5b5061023860cc5481565b604051908152602001610177565b34801561025257600080fd5b5061023860cd5481565b34801561026857600080fd5b506101a0610277366004611348565b610667565b34801561028857600080fd5b506101ce6380ac58cd60e01b81565b3480156102a357600080fd5b5060655460ff1661016b565b3480156102bb57600080fd5b5061023860cb5481565b6101a06102d336600461125b565b61067a565b3480156102e457600080fd5b506101a0610861565b6101a06102fb36600461136a565b610875565b34801561030c57600080fd5b506101a0610a3b565b34801561032157600080fd5b506033546040516001600160a01b039091168152602001610177565b34801561034957600080fd5b5061023860ca5481565b34801561035f57600080fd5b506101ce61036e3660046113fc565b63bc197c8160e01b98975050505050505050565b34801561038e57600080fd5b506103e061039d36600461125b565b60c9602052600090815260409020805460018201546002830154600384015460048501546005909501546001600160a01b03948516959385169490921692909186565b604080516001600160a01b039788168152958716602087015293909516928401929092526060830152608082015260a081019190915260c001610177565b34801561042a57600080fd5b506101ce6104393660046114b7565b63f23a6e6160e01b9695505050505050565b34801561045757600080fd5b506101a061046636600461152f565b610b5b565b34801561047757600080fd5b506101a061048636600461154a565b610bd1565b610493610c5e565b60cd55565b6104a0610cb8565b6104a8610cfe565b600081815260c96020908152604091829020825160c08101845281546001600160a01b0390811682526001830154811693820193909352600282015490921692820192909252600382015460608201526004820154608082015260059091015460a082015260ca5461051990610d58565b80516001600160a01b03166105665760405162461bcd60e51b815260206004820152600e60248201526d139195081b9bdd081b1a5cdd195960921b60448201526064015b60405180910390fd5b6000606460cd548360a0015161057c919061158a565b61058691906115a9565b90506000818360a0015161059a91906115cb565b90506105ac8360200151333085610d9d565b6105c0836020015133856000015184610d9d565b6105d98360400151303386606001518760800151610ea9565b60408051338152602081018690527ff025e0c58bf784c030caa814abce9ca7cf237831d4dff71c2ade33bed4d8dd22910160405180910390a1505050600081815260c96020526040812080546001600160a01b031990811682556001820180548216905560028201805490911690556003810182905560048101829055600501556106646001609755565b50565b61066f610c5e565b60cb9190915560cc55565b610682610cb8565b61068a610cfe565b600081815260c96020908152604091829020825160c08101845281546001600160a01b0390811680835260018401548216948301949094526002830154169381019390935260038101546060840152600481015460808401526005015460a08301526107285760405162461bcd60e51b815260206004820152600d60248201526c24a2103737ba1039b2b63632b960991b604482015260640161055d565b60cc5434146107715760405162461bcd60e51b8152602060048201526015602482015274496e76616c696420756e6c697374696e672066656560581b604482015260640161055d565b80516001600160a01b031633146107bb5760405162461bcd60e51b815260206004820152600e60248201526d27232a103737ba1039b2b63632b960911b604482015260640161055d565b6107d8816040015130836000015184606001518560800151610ea9565b60408051338152602081018490527f8a7922f72dc2a50a632acdde12b7d222aefa2fdb7f3ca1364b419734569d0e80910160405180910390a150600081815260c96020526040812080546001600160a01b031990811682556001820180548216905560028201805490911690556003810182905560048101829055600501556106646001609755565b610869610c5e565b610873600061112d565b565b61087d610cb8565b610885610cfe565b60cb5434146108cc5760405162461bcd60e51b8152602060048201526013602482015272496e76616c6964206c697374696e672066656560681b604482015260640161055d565b6000821161091c5760405162461bcd60e51b815260206004820152601d60248201527f416d6f756e74206d7573742062652067726561746572207468616e2030000000604482015260640161055d565b6040805160c081018252338082526001600160a01b0387811660208085019182528a8316858701908152606086018a8152608087018a815260a088018a815260ca54600090815260c990955298909320965187549086166001600160a01b0319918216178855935160018801805491871691861691909117905590516002870180549190951693169290921790925551600384015551600483015591516005909101556109cd908690308686610ea9565b60ca80549060006109dd836115e2565b90915550506040805133815260208101859052908101839052606081018290527f72c6b00617fb9c6ec35f606798d02888460a1dd9bb2cce22abd49ee21a0ee8169060800160405180910390a1610a346001609755565b5050505050565b600054610100900460ff1615808015610a5b5750600054600160ff909116105b80610a755750303b158015610a75575060005460ff166001145b610ad85760405162461bcd60e51b815260206004820152602e60248201527f496e697469616c697a61626c653a20636f6e747261637420697320616c72656160448201526d191e481a5b9a5d1a585b1a5e995960921b606482015260840161055d565b6000805460ff191660011790558015610afb576000805461ff0019166101001790555b610b0361117f565b610b0b6111b2565b610b136111e2565b8015610664576000805461ff0019169055604051600181527f7f26b83ff96e1f2b6a682f133852f6798a09c465da95921460cefb38474024989060200160405180910390a150565b610b63610c5e565b6001600160a01b038116610bc85760405162461bcd60e51b815260206004820152602660248201527f4f776e61626c653a206e6577206f776e657220697320746865207a65726f206160448201526564647265737360d01b606482015260840161055d565b6106648161112d565b610bd9610c5e565b60405163a9059cbb60e01b8152336004820152602481018290526001600160a01b0383169063a9059cbb90604401602060405180830381600087803b158015610c2157600080fd5b505af1158015610c35573d6000803e3d6000fd5b505050506040513d601f19601f82011682018060405250810190610c5991906115fd565b505050565b6033546001600160a01b031633146108735760405162461bcd60e51b815260206004820181905260248201527f4f776e61626c653a2063616c6c6572206973206e6f7420746865206f776e6572604482015260640161055d565b60655460ff16156108735760405162461bcd60e51b815260206004820152601060248201526f14185d5cd8589b194e881c185d5cd95960821b604482015260640161055d565b60026097541415610d515760405162461bcd60e51b815260206004820152601f60248201527f5265656e7472616e637947756172643a207265656e7472616e742063616c6c00604482015260640161055d565b6002609755565b61066481604051602401610d6e91815260200190565b60408051601f198184030181529190526020810180516001600160e01b031663f82c50f160e01b179052611209565b60008111610dda5760405162461bcd60e51b815260206004820152600a6024820152690416d6f756e74203e20360b41b604482015260640161055d565b6040516323b872dd60e01b81526001600160a01b038481166004830152838116602483015260448201839052600091908616906323b872dd90606401602060405180830381600087803b158015610e3057600080fd5b505af1158015610e44573d6000803e3d6000fd5b505050506040513d601f19601f82011682018060405250810190610e6891906115fd565b905080610a345760405162461bcd60e51b815260206004820152600f60248201526e151c985b9cd9995c8819985a5b1959608a1b604482015260640161055d565b60008111610ee65760405162461bcd60e51b815260206004820152600a6024820152690416d6f756e74203e20360b41b604482015260640161055d565b6040516301ffc9a760e01b81526380ac58cd60e01b60048201526001600160a01b038616906301ffc9a79060240160206040518083038186803b158015610f2c57600080fd5b505afa158015610f40573d6000803e3d6000fd5b505050506040513d601f19601f82011682018060405250810190610f6491906115fd565b1561101d5780600114610fae5760405162461bcd60e51b8152602060048201526012602482015271416d6f756e7420657263373231203d3d203160701b604482015260640161055d565b604051632142170760e11b81526001600160a01b0385811660048301528481166024830152604482018490528616906342842e0e90606401600060405180830381600087803b15801561100057600080fd5b505af1158015611014573d6000803e3d6000fd5b50505050610a34565b6040516301ffc9a760e01b8152636cdb3d1360e11b60048201526001600160a01b038616906301ffc9a79060240160206040518083038186803b15801561106357600080fd5b505afa158015611077573d6000803e3d6000fd5b505050506040513d601f19601f8201168201806040525081019061109b91906115fd565b15610a3457604051637921219560e11b81526001600160a01b0385811660048301528481166024830152604482018490526064820183905260a06084830152600060a483015286169063f242432a9060c401600060405180830381600087803b15801561110757600080fd5b505af115801561111b573d6000803e3d6000fd5b505050505050505050565b6001609755565b603380546001600160a01b038381166001600160a01b0319831681179093556040519116919082907f8be0079c531659141344cd1fd0a4f28419497f9722a3daafe3b4186f6b6457e090600090a35050565b600054610100900460ff166111a65760405162461bcd60e51b815260040161055d9061161f565b6065805460ff19169055565b600054610100900460ff166111d95760405162461bcd60e51b815260040161055d9061161f565b6108733361112d565b600054610100900460ff166111265760405162461bcd60e51b815260040161055d9061161f565b80516a636f6e736f6c652e6c6f67602083016000808483855afa5050505050565b60006020828403121561123c57600080fd5b81356001600160e01b03198116811461125457600080fd5b9392505050565b60006020828403121561126d57600080fd5b5035919050565b80356001600160a01b038116811461128b57600080fd5b919050565b60008083601f8401126112a257600080fd5b50813567ffffffffffffffff8111156112ba57600080fd5b6020830191508360208285010111156112d257600080fd5b9250929050565b6000806000806000608086880312156112f157600080fd5b6112fa86611274565b945061130860208701611274565b935060408601359250606086013567ffffffffffffffff81111561132b57600080fd5b61133788828901611290565b969995985093965092949392505050565b6000806040838503121561135b57600080fd5b50508035926020909101359150565b600080600080600060a0868803121561138257600080fd5b61138b86611274565b945061139960208701611274565b94979496505050506040830135926060810135926080909101359150565b60008083601f8401126113c957600080fd5b50813567ffffffffffffffff8111156113e157600080fd5b6020830191508360208260051b85010111156112d257600080fd5b60008060008060008060008060a0898b03121561141857600080fd5b61142189611274565b975061142f60208a01611274565b9650604089013567ffffffffffffffff8082111561144c57600080fd5b6114588c838d016113b7565b909850965060608b013591508082111561147157600080fd5b61147d8c838d016113b7565b909650945060808b013591508082111561149657600080fd5b506114a38b828c01611290565b999c989b5096995094979396929594505050565b60008060008060008060a087890312156114d057600080fd5b6114d987611274565b95506114e760208801611274565b94506040870135935060608701359250608087013567ffffffffffffffff81111561151157600080fd5b61151d89828a01611290565b979a9699509497509295939492505050565b60006020828403121561154157600080fd5b61125482611274565b6000806040838503121561155d57600080fd5b61156683611274565b946020939093013593505050565b634e487b7160e01b600052601160045260246000fd5b60008160001904831182151516156115a4576115a4611574565b500290565b6000826115c657634e487b7160e01b600052601260045260246000fd5b500490565b6000828210156115dd576115dd611574565b500390565b60006000198214156115f6576115f6611574565b5060010190565b60006020828403121561160f57600080fd5b8151801515811461125457600080fd5b6020808252602b908201527f496e697469616c697a61626c653a20636f6e7472616374206973206e6f74206960408201526a6e697469616c697a696e6760a81b60608201526080019056fea264697066735822122060db0ac4646ac5a6d3a92f1006d25156f7317a39247aadd50ea6cb164849190e64736f6c63430008090033",
  "linkReferences": {},
  "deployedLinkReferences": {}
}