{
  "_format": "hh-sol-artifact-1",
  "contractName": "Maketplace",
  "sourceName": "contracts/Maketplace.sol",
  "abi": [
    {
      "anonymous": false,
      "inputs": [
        {
          "indexed": false,
          "internalType": "uint8",
          "name": "version",
          "type": "uint8"
        }
      ],
      "name": "Initialized",
      "type": "event"
    },
    {
      "anonymous": false,
      "inputs": [
        {
          "indexed": false,
          "internalType": "address",
          "name": "seller",
          "type": "address"
        },
        {
          "indexed": false,
          "internalType": "uint256",
          "name": "tokenId",
          "type": "uint256"
        },
        {
          "indexed": false,
          "internalType": "uint256",
          "name": "amount",
          "type": "uint256"
        },
        {
          "indexed": false,
          "internalType": "uint256",
          "name": "price",
          "type": "uint256"
        },
        {
          "indexed": false,
          "internalType": "bool",
          "name": "isListing",
          "type": "bool"
        }
      ],
      "name": "NFTListed",
      "type": "event"
    },
    {
      "anonymous": false,
      "inputs": [],
      "name": "NFTSold",
      "type": "event"
    },
    {
      "anonymous": false,
      "inputs": [
        {
          "indexed": false,
          "internalType": "address",
          "name": "userAddress",
          "type": "address"
        },
        {
          "indexed": false,
          "internalType": "uint256",
          "name": "listingId",
          "type": "uint256"
        }
      ],
      "name": "NFTUnlisted",
      "type": "event"
    },
    {
      "anonymous": false,
      "inputs": [
        {
          "indexed": true,
          "internalType": "address",
          "name": "previousOwner",
          "type": "address"
        },
        {
          "indexed": true,
          "internalType": "address",
          "name": "newOwner",
          "type": "address"
        }
      ],
      "name": "OwnershipTransferred",
      "type": "event"
    },
    {
      "anonymous": false,
      "inputs": [
        {
          "indexed": false,
          "internalType": "address",
          "name": "account",
          "type": "address"
        }
      ],
      "name": "Paused",
      "type": "event"
    },
    {
      "anonymous": false,
      "inputs": [
        {
          "indexed": false,
          "internalType": "address",
          "name": "account",
          "type": "address"
        }
      ],
      "name": "Unpaused",
      "type": "event"
    },
    {
      "inputs": [],
      "name": "ERC1155_INTERFACE_ID",
      "outputs": [
        {
          "internalType": "bytes4",
          "name": "",
          "type": "bytes4"
        }
      ],
      "stateMutability": "view",
      "type": "function"
    },
    {
      "inputs": [],
      "name": "ERC721_INTERFACE_ID",
      "outputs": [
        {
          "internalType": "bytes4",
          "name": "",
          "type": "bytes4"
        }
      ],
      "stateMutability": "view",
      "type": "function"
    },
    {
      "inputs": [
        {
          "internalType": "uint256",
          "name": "_listingId",
          "type": "uint256"
        },
        {
          "internalType": "uint256",
          "name": "_amount",
          "type": "uint256"
        }
      ],
      "name": "buyNft",
      "outputs": [],
      "stateMutability": "payable",
      "type": "function"
    },
    {
      "inputs": [],
      "name": "buyerFee",
      "outputs": [
        {
          "internalType": "uint256",
          "name": "",
          "type": "uint256"
        }
      ],
      "stateMutability": "view",
      "type": "function"
    },
    {
      "inputs": [],
      "name": "initialize",
      "outputs": [],
      "stateMutability": "nonpayable",
      "type": "function"
    },
    {
      "inputs": [
        {
          "internalType": "address",
          "name": "_addrNft",
          "type": "address"
        },
        {
          "internalType": "address",
          "name": "_paymentToken",
          "type": "address"
        },
        {
          "internalType": "uint256",
          "name": "_tokenId",
          "type": "uint256"
        },
        {
          "internalType": "uint256",
          "name": "_amount",
          "type": "uint256"
        },
        {
          "internalType": "uint256",
          "name": "_price",
          "type": "uint256"
        }
      ],
      "name": "listing",
      "outputs": [],
      "stateMutability": "payable",
      "type": "function"
    },
    {
      "inputs": [],
      "name": "listingFee",
      "outputs": [
        {
          "internalType": "uint256",
          "name": "",
          "type": "uint256"
        }
      ],
      "stateMutability": "view",
      "type": "function"
    },
    {
      "inputs": [
        {
          "internalType": "uint256",
          "name": "",
          "type": "uint256"
        }
      ],
      "name": "listings",
      "outputs": [
        {
          "internalType": "address",
          "name": "seller",
          "type": "address"
        },
        {
          "internalType": "address",
          "name": "paymentToken",
          "type": "address"
        },
        {
          "internalType": "address",
          "name": "nft",
          "type": "address"
        },
        {
          "internalType": "uint256",
          "name": "tokenId",
          "type": "uint256"
        },
        {
          "internalType": "uint256",
          "name": "amount",
          "type": "uint256"
        },
        {
          "internalType": "uint256",
          "name": "price",
          "type": "uint256"
        }
      ],
      "stateMutability": "view",
      "type": "function"
    },
    {
      "inputs": [],
      "name": "nextListingId",
      "outputs": [
        {
          "internalType": "uint256",
          "name": "",
          "type": "uint256"
        }
      ],
      "stateMutability": "view",
      "type": "function"
    },
    {
      "inputs": [
        {
          "internalType": "address",
          "name": "operator",
          "type": "address"
        },
        {
          "internalType": "address",
          "name": "from",
          "type": "address"
        },
        {
          "internalType": "uint256[]",
          "name": "ids",
          "type": "uint256[]"
        },
        {
          "internalType": "uint256[]",
          "name": "values",
          "type": "uint256[]"
        },
        {
          "internalType": "bytes",
          "name": "data",
          "type": "bytes"
        }
      ],
      "name": "onERC1155BatchReceived",
      "outputs": [
        {
          "internalType": "bytes4",
          "name": "",
          "type": "bytes4"
        }
      ],
      "stateMutability": "pure",
      "type": "function"
    },
    {
      "inputs": [
        {
          "internalType": "address",
          "name": "operator",
          "type": "address"
        },
        {
          "internalType": "address",
          "name": "from",
          "type": "address"
        },
        {
          "internalType": "uint256",
          "name": "tokenId",
          "type": "uint256"
        },
        {
          "internalType": "uint256",
          "name": "value",
          "type": "uint256"
        },
        {
          "internalType": "bytes",
          "name": "data",
          "type": "bytes"
        }
      ],
      "name": "onERC1155Received",
      "outputs": [
        {
          "internalType": "bytes4",
          "name": "",
          "type": "bytes4"
        }
      ],
      "stateMutability": "pure",
      "type": "function"
    },
    {
      "inputs": [
        {
          "internalType": "address",
          "name": "operator",
          "type": "address"
        },
        {
          "internalType": "address",
          "name": "from",
          "type": "address"
        },
        {
          "internalType": "uint256",
          "name": "tokenId",
          "type": "uint256"
        },
        {
          "internalType": "bytes",
          "name": "data",
          "type": "bytes"
        }
      ],
      "name": "onERC721Received",
      "outputs": [
        {
          "internalType": "bytes4",
          "name": "",
          "type": "bytes4"
        }
      ],
      "stateMutability": "pure",
      "type": "function"
    },
    {
      "inputs": [],
      "name": "owner",
      "outputs": [
        {
          "internalType": "address",
          "name": "",
          "type": "address"
        }
      ],
      "stateMutability": "view",
      "type": "function"
    },
    {
      "inputs": [],
      "name": "paused",
      "outputs": [
        {
          "internalType": "bool",
          "name": "",
          "type": "bool"
        }
      ],
      "stateMutability": "view",
      "type": "function"
    },
    {
      "inputs": [],
      "name": "renounceOwnership",
      "outputs": [],
      "stateMutability": "nonpayable",
      "type": "function"
    },
    {
      "inputs": [],
      "name": "rescueStuck",
      "outputs": [],
      "stateMutability": "nonpayable",
      "type": "function"
    },
    {
      "inputs": [
        {
          "internalType": "uint256",
          "name": "_listingFee",
          "type": "uint256"
        },
        {
          "internalType": "uint256",
          "name": "_buyerFee",
          "type": "uint256"
        },
        {
          "internalType": "uint256",
          "name": "_unListingFee",
          "type": "uint256"
        }
      ],
      "name": "setFee",
      "outputs": [],
      "stateMutability": "nonpayable",
      "type": "function"
    },
    {
      "inputs": [
        {
          "internalType": "bytes4",
          "name": "interfaceId",
          "type": "bytes4"
        }
      ],
      "name": "supportsInterface",
      "outputs": [
        {
          "internalType": "bool",
          "name": "",
          "type": "bool"
        }
      ],
      "stateMutability": "pure",
      "type": "function"
    },
    {
      "inputs": [
        {
          "internalType": "address",
          "name": "newOwner",
          "type": "address"
        }
      ],
      "name": "transferOwnership",
      "outputs": [],
      "stateMutability": "nonpayable",
      "type": "function"
    },
    {
      "inputs": [
        {
          "internalType": "uint256",
          "name": "_listingId",
          "type": "uint256"
        }
      ],
      "name": "unListing",
      "outputs": [],
      "stateMutability": "payable",
      "type": "function"
    },
    {
      "inputs": [],
      "name": "unListingFee",
      "outputs": [
        {
          "internalType": "uint256",
          "name": "",
          "type": "uint256"
        }
      ],
      "stateMutability": "view",
      "type": "function"
    }
  ],
  "bytecode": "0x608060405234801561001057600080fd5b5061159f806100206000396000f3fe60806040526004361061012a5760003560e01c80636a2a4544116100ab578063aaccf1ec1161006f578063aaccf1ec14610305578063bc197c811461031b578063bdea6c471461034a578063de74e57b1461035f578063f23a6e61146103fb578063f2fde38b1461042857600080fd5b80636a2a45441461028d578063715018a6146102a05780637176ba2f146102b55780638129fc1c146102c85780638da5cb5b146102dd57600080fd5b806359f4a907116100f257806359f4a9071461020e5780635b65b9ab146102295780635c975abb146102495780635de6c42f146102615780636a1b7ecc1461027757600080fd5b806301ffc9a71461012f578063150b7a02146101755780632ca069a5146101ba5780633efae5f8146101d5578063556f8084146101f9575b600080fd5b34801561013b57600080fd5b5061016061014a366004611125565b6001600160e01b0319166301ffc9a760e01b1490565b60405190151581526020015b60405180910390f35b34801561018157600080fd5b506101a16101903660046111bb565b630a85bd0160e11b95945050505050565b6040516001600160e01b0319909116815260200161016c565b3480156101c657600080fd5b506101a1636cdb3d1360e11b81565b3480156101e157600080fd5b506101eb60cd5481565b60405190815260200161016c565b61020c61020736600461122a565b610448565b005b34801561021a57600080fd5b506101a16380ac58cd60e01b81565b34801561023557600080fd5b5061020c61024436600461124c565b6106bf565b34801561025557600080fd5b5060655460ff16610160565b34801561026d57600080fd5b506101eb60cc5481565b34801561028357600080fd5b506101eb60cb5481565b61020c61029b366004611278565b6106d5565b3480156102ac57600080fd5b5061020c6108bf565b61020c6102c3366004611291565b6108d3565b3480156102d457600080fd5b5061020c610aa0565b3480156102e957600080fd5b506033546040516001600160a01b03909116815260200161016c565b34801561031157600080fd5b506101eb60ca5481565b34801561032757600080fd5b506101a1610336366004611323565b63bc197c8160e01b98975050505050505050565b34801561035657600080fd5b5061020c610bc0565b34801561036b57600080fd5b506103bd61037a366004611278565b60c9602052600090815260409020805460018201546002830154600384015460048501546005909501546001600160a01b03948516959385169490921692909186565b604080516001600160a01b039788168152958716602087015293909516928401929092526060830152608082015260a081019190915260c00161016c565b34801561040757600080fd5b506101a16104163660046113de565b63f23a6e6160e01b9695505050505050565b34801561043457600080fd5b5061020c610443366004611456565b610bc8565b610450610c3e565b610458610c84565b60cc5434146104a45760405162461bcd60e51b8152602060048201526013602482015272496e76616c696420627579204e46542066656560681b60448201526064015b60405180910390fd5b600082815260c96020908152604091829020825160c08101845281546001600160a01b0390811680835260018401548216948301949094526002830154169381019390935260038101546060840152600481015460808401526005015460a08301526105435760405162461bcd60e51b815260206004820152600e60248201526d139195081b9bdd081b1a5cdd195960921b604482015260640161049b565b600082116105635760405162461bcd60e51b815260040161049b90611471565b80608001518211156105a85760405162461bcd60e51b815260206004820152600e60248201526d125b9d985b1a5908185b5bdd5b9d60921b604482015260640161049b565b6000828260a001516105ba91906114ab565b90506105d0826020015133846000015184610cde565b6105e98260400151303385606001518660800151610d88565b8282608001516105f991906114ca565b6080830181905261068657600084815260c96020908152604080832080546001600160a01b0319908116825560018201805482169055600282018054909116905560038101849055600481018490556005019290925581513381529081018690527f8a7922f72dc2a50a632acdde12b7d222aefa2fdb7f3ca1364b419734569d0e80910160405180910390a15b6040517f36a151de1ad98efa19a05c146806baf2ea97c57a057bc767efafb0cdf76843c690600090a150506106bb6001609755565b5050565b6106c7610fef565b60cb9290925560cc5560cd55565b6106dd610c3e565b6106e5610c84565b600081815260c96020908152604091829020825160c08101845281546001600160a01b0390811680835260018401548216948301949094526002830154169381019390935260038101546060840152600481015460808401526005015460a08301526107835760405162461bcd60e51b815260206004820152600d60248201526c24a2103737ba1039b2b63632b960991b604482015260640161049b565b60cd5434146107cc5760405162461bcd60e51b8152602060048201526015602482015274496e76616c696420756e6c697374696e672066656560581b604482015260640161049b565b80516001600160a01b031633146108165760405162461bcd60e51b815260206004820152600e60248201526d27232a103737ba1039b2b63632b960911b604482015260640161049b565b610833816040015130836000015184606001518560800151610d88565b60408051338152602081018490527f8a7922f72dc2a50a632acdde12b7d222aefa2fdb7f3ca1364b419734569d0e80910160405180910390a150600081815260c96020526040812080546001600160a01b031990811682556001820180548216905560028201805490911690556003810182905560048101829055600501556108bc6001609755565b50565b6108c7610fef565b6108d16000611049565b565b6108db610c3e565b6108e3610c84565b60cb54341461092a5760405162461bcd60e51b8152602060048201526013602482015272496e76616c6964206c697374696e672066656560681b604482015260640161049b565b6000821161097a5760405162461bcd60e51b815260206004820152601d60248201527f416d6f756e74206d7573742062652067726561746572207468616e2030000000604482015260640161049b565b6109878533308686610d88565b6040805160c0810182523381526001600160a01b038681166020808401918252898316848601908152606085018981526080860189815260a0870189815260ca8054600090815260c9909652988520975188549088166001600160a01b031991821617895595516001890180549189169188169190911790559251600288018054919097169516949094179094559251600385015590516004840155905160059092019190915581549190610a3b836114e1565b9091555050604080513381526020810185905290810183905260608101829052600160808201527f0df09de10ac3779e5b2c4414eff804f70e28d87825268aa245685a3af0ae535a9060a00160405180910390a1610a996001609755565b5050505050565b600054610100900460ff1615808015610ac05750600054600160ff909116105b80610ada5750303b158015610ada575060005460ff166001145b610b3d5760405162461bcd60e51b815260206004820152602e60248201527f496e697469616c697a61626c653a20636f6e747261637420697320616c72656160448201526d191e481a5b9a5d1a585b1a5e995960921b606482015260840161049b565b6000805460ff191660011790558015610b60576000805461ff0019166101001790555b610b6861109b565b610b706110ce565b610b786110fe565b80156108bc576000805461ff0019169055604051600181527f7f26b83ff96e1f2b6a682f133852f6798a09c465da95921460cefb38474024989060200160405180910390a150565b6108d1610fef565b610bd0610fef565b6001600160a01b038116610c355760405162461bcd60e51b815260206004820152602660248201527f4f776e61626c653a206e6577206f776e657220697320746865207a65726f206160448201526564647265737360d01b606482015260840161049b565b6108bc81611049565b60655460ff16156108d15760405162461bcd60e51b815260206004820152601060248201526f14185d5cd8589b194e881c185d5cd95960821b604482015260640161049b565b60026097541415610cd75760405162461bcd60e51b815260206004820152601f60248201527f5265656e7472616e637947756172643a207265656e7472616e742063616c6c00604482015260640161049b565b6002609755565b60008111610cfe5760405162461bcd60e51b815260040161049b90611471565b6040516323b872dd60e01b81526001600160a01b0384811660048301528381166024830152604482018390528516906323b872dd90606401602060405180830381600087803b158015610d5057600080fd5b505af1158015610d64573d6000803e3d6000fd5b505050506040513d601f19601f82011682018060405250810190610a9991906114fc565b60008111610da85760405162461bcd60e51b815260040161049b90611471565b6040516301ffc9a760e01b81526380ac58cd60e01b60048201526001600160a01b038616906301ffc9a79060240160206040518083038186803b158015610dee57600080fd5b505afa158015610e02573d6000803e3d6000fd5b505050506040513d601f19601f82011682018060405250810190610e2691906114fc565b15610edf5780600114610e705760405162461bcd60e51b8152602060048201526012602482015271416d6f756e7420657263373231203d3d203160701b604482015260640161049b565b604051632142170760e11b81526001600160a01b0385811660048301528481166024830152604482018490528616906342842e0e90606401600060405180830381600087803b158015610ec257600080fd5b505af1158015610ed6573d6000803e3d6000fd5b50505050610a99565b6040516301ffc9a760e01b8152636cdb3d1360e11b60048201526001600160a01b038616906301ffc9a79060240160206040518083038186803b158015610f2557600080fd5b505afa158015610f39573d6000803e3d6000fd5b505050506040513d601f19601f82011682018060405250810190610f5d91906114fc565b15610a9957604051637921219560e11b81526001600160a01b0385811660048301528481166024830152604482018490526064820183905260a06084830152600060a483015286169063f242432a9060c401600060405180830381600087803b158015610fc957600080fd5b505af1158015610fdd573d6000803e3d6000fd5b505050505050505050565b6001609755565b6033546001600160a01b031633146108d15760405162461bcd60e51b815260206004820181905260248201527f4f776e61626c653a2063616c6c6572206973206e6f7420746865206f776e6572604482015260640161049b565b603380546001600160a01b038381166001600160a01b0319831681179093556040519116919082907f8be0079c531659141344cd1fd0a4f28419497f9722a3daafe3b4186f6b6457e090600090a35050565b600054610100900460ff166110c25760405162461bcd60e51b815260040161049b9061151e565b6065805460ff19169055565b600054610100900460ff166110f55760405162461bcd60e51b815260040161049b9061151e565b6108d133611049565b600054610100900460ff16610fe85760405162461bcd60e51b815260040161049b9061151e565b60006020828403121561113757600080fd5b81356001600160e01b03198116811461114f57600080fd5b9392505050565b80356001600160a01b038116811461116d57600080fd5b919050565b60008083601f84011261118457600080fd5b50813567ffffffffffffffff81111561119c57600080fd5b6020830191508360208285010111156111b457600080fd5b9250929050565b6000806000806000608086880312156111d357600080fd5b6111dc86611156565b94506111ea60208701611156565b935060408601359250606086013567ffffffffffffffff81111561120d57600080fd5b61121988828901611172565b969995985093965092949392505050565b6000806040838503121561123d57600080fd5b50508035926020909101359150565b60008060006060848603121561126157600080fd5b505081359360208301359350604090920135919050565b60006020828403121561128a57600080fd5b5035919050565b600080600080600060a086880312156112a957600080fd5b6112b286611156565b94506112c060208701611156565b94979496505050506040830135926060810135926080909101359150565b60008083601f8401126112f057600080fd5b50813567ffffffffffffffff81111561130857600080fd5b6020830191508360208260051b85010111156111b457600080fd5b60008060008060008060008060a0898b03121561133f57600080fd5b61134889611156565b975061135660208a01611156565b9650604089013567ffffffffffffffff8082111561137357600080fd5b61137f8c838d016112de565b909850965060608b013591508082111561139857600080fd5b6113a48c838d016112de565b909650945060808b01359150808211156113bd57600080fd5b506113ca8b828c01611172565b999c989b5096995094979396929594505050565b60008060008060008060a087890312156113f757600080fd5b61140087611156565b955061140e60208801611156565b94506040870135935060608701359250608087013567ffffffffffffffff81111561143857600080fd5b61144489828a01611172565b979a9699509497509295939492505050565b60006020828403121561146857600080fd5b61114f82611156565b6020808252600a90820152690416d6f756e74203e20360b41b604082015260600190565b634e487b7160e01b600052601160045260246000fd5b60008160001904831182151516156114c5576114c5611495565b500290565b6000828210156114dc576114dc611495565b500390565b60006000198214156114f5576114f5611495565b5060010190565b60006020828403121561150e57600080fd5b8151801515811461114f57600080fd5b6020808252602b908201527f496e697469616c697a61626c653a20636f6e7472616374206973206e6f74206960408201526a6e697469616c697a696e6760a81b60608201526080019056fea2646970667358221220fbad6fd44fd70a1f7258e862fe270238dbcbd27c9fec00f1505b0947f994411664736f6c63430008090033",
  "linkReferences": {},
  "deployedLinkReferences": {}
}